:10006200AF82AC08AD09AE0A8C828D838EF0120B82
:1000720082F54B8F82C007C006C005C0041200D0B3
:10008200D004D005D006D0070CBC00010D8C828DA7
:10009200838EF0120B82F54B8F82020101E582FF03
:1000A20024FC4029EF2F9000AC738006800B801057
:1000B2008015E54B24FF92A822E54B24FF92AA2249
:1000C200E54B24FF92C222E54B24FF92C622E58231
:1000D200FF24FC4029EF2F9000DD738006800B8007
:1000E200108015E54B24FF928822E54B24FF928A6B
:1000F20022E54B24FF92C022E54B24FF92C422E565
:1001020082FF24FC4029EF2F90010E738006800BA2
:1001120080108015E54B24FF92B822E54B24FF9214
:10012200BA22E54B24FF92C322E54B24FF92C72259
:10013200AF82E50C7008850B4B8F820201B7850BED
:100142004B8F820201EDE582FF24FB4023EF2F90CB
:100152000155738008800A800C800E8010854B80C8
:1001620022854B9022854BA022854BB022854BE8FD
:1001720022AF827E00EF24FB4031EF2F9001827389
:100182008008800D80128017801CE54B5580FE8010
:100192001AE54B5590FE8013E54B55A0FE800CE509
:1001A2004B55B0FE8005E54B55E8FEEE7003F58237
:1001B2002275820122E582FF24FB402EEF2F90015F
:1001C200C4738008800C801080148018E54BF452B0
:1001D2008022E54BF4529022E54BF452A022E54BEB
:1001E200F452B022E54BF4FF52E822E582FF24FBF1
:1001F2004028EF2F9001FA738008800B800E801147
:100202008014E54B428022E54B429022E54B42A00E
:1002120022E54B42B022E54B42E822E582FF24FB75
:10022200406EEF2F90022A7380088019802A803B4B
:10023200804CE54BF4FFE5805207E580F4FEE54B88
:100242005E4FF58022E54BF4FFE5905207E590F40E
:10025200FEE54B5E4FF59022E54BF4FFE5A0520719
:10026200E5A0F4FEE54B5E4FF5A022E54BF4FFE579
:10027200B05207E5B0F4FEE54B5E4FF5B022E54B18
:10028200F4FFE5E85207E5E8F4FEE54B5E4FF5E8DA
:1002920022AF82747F55E7FEEF0354804EF5E722CA
:1002A200AE82AF83C3EF9420E433FDC374FF9E7428
:1002B2002F9FE433FC4D6002C322758201C007C048
:1002C20006120293D006D0078E828F8312032F75F7
:1002D200820312033812033C900001120A641202D4
:1002E200E5D32275820012029390000012032F754B
:1002F200820012033875E2FF22AE82AF837582015B
:10030200C007C006120293D006D0078E828F8312D6
:10031200032F75820112033812033C900001120A66
:1003220064AFE2C0071202E5D0078F8222AE82AF2D
:10033200838EE48FE3228582E52275E64675E6B96F
:1003420022AE82AF83C3EF9420E433FDC374FF9ED9
:10035200742F9FE433FC4D600122758201C007C0F7
:1003620006120293D006D0078E828F8312032F7556
:100372008202120338850DE212033C900001120A38
:10038200640202E5AF82747F55E74480F5E774BFEB
:1003920055E7FEEF030354C04EF5E774DF55E7441B
:0403A20020F5E72239
:03000000020006F5
:03005F0002000399
:030003000203CA2B
:1003A600751F80752025752101752200752301753D
:1003B600240075250175260190001F75F04012076F
:1003C600E7020A611203A6900BA275F080120A02D8
:1003D600758204120AA4758201120A849001F4122D
:1003E6000A64120A80900BAB75F080120A0280EC48
:100BA2004D435520626F6F740077617463682064EF
:100BB2006F6720686173206265656E206665656493
:030BC20065640067
:1003F600AE82AF83E4F528F529E52724FC4034E5F1
:100406002775F003A490040F7302041B0204230251
:10041600042B0204337528FF75291F80167528FFE3
:100426007529FF800E7528FF75290080067528FF3F
:100436007529008E4B8F4C90000C120B13AE82AFB9
:10044600837B007A00754B0BE4F54CF54DF54E8E2B
:10045600828F838BF0EA120B30AA82AB83AEF0FF59
:10046600A828A9297C007D00C3EA98EB99EE9CEFA9
:1004760064808DF063F08095F04004900000227453
:10048600012528FCE43529FD8C008D01E4FCFDE8FE
:10049600C39AFAE99BFBEC9EED9F8A828B8322AF7F
:1004A60082BF00028005BF010F8007E54B24FF9243
:1004B6008C22E54B24FF928E22AF82AC2AAD2BAE66
:1004C6002C8C828D838EF0120B82F54B8F82C007A7
:1004D600C006C005C0041205C5D004D005D006D09C
:1004E6000774012CF9E43DFA8E0389828A838BF026
:1004F600120B82F54B8F82C007C006C005C00412DE
:10050600062ED004D005D006D00774022CF9E43D9F
:10051600FA8E0389828A838BF0120B82F54B8F82C7
:10052600C007C006C005C004120648D004D005D0D6
:1005360006D00774032CF9E43DFA8E0389828A8378
:100546008BF0120B82F54B8F82C007C006C005C028
:10055600041205F0D004D005D006D00774042CFC94
:10056600E43DFD8C828D838EF0120B82F54BA31237
:100576000B82F54C8F82020614AF82BF0002800503
:10058600BF01248011AF8C7E00AC8A7D00EC4EF555
:1005960082ED4FF58322AF8D7E00AC8B7D00EC4E55
:1005A600F582ED4FF5832290000022AF82BF000254
:1005B6008005BF01088003A28D22A28F22C322AF2D
:1005C60082BF00028005BF0120800F74FB5589FFA2
:1005D600E54B254B25E04FF5892274BF5589FFE58C
:1005E6004B030354C0FE4FF58922AF82BF00028041
:1005F60005BF0119800974FC5589454BF58922749C
:10060600CF5589FFE54BC454F0FE4FF58922AF82E2
:10061600BF00028005BF010F8007854C8C854B8A81
:1006260022854C8D854B8B22AF82BF00028005BF91
:10063600010F8007E54B24FF92A922E54B24FF9288
:10064600AB22AF82BF00028005BF010F8007E54BDA
:1006560024FF92B922E54B24FF92BB2285824B856B
:10066600834C90000C120B13AE82AF837D007C008E
:10067600754B0BE4F54CF54DF54E8E828F838DF060
:10068600EC120B30AC82AD83AEF0FFC3EC94FFED01
:1006960094FFEE9400EF6480948040049000002262
:1006A600C3E49CFCE49DFDE49EE49F8C828D832242
:1006B60053C87F22AF8274FB55C8FEEF2F25E04E4C
:1006C600F5C822AD82AE83AFF0120B82F582C00769
:1006D600C006C005120784D005D006D00774012DC8
:1006E600FAE43EFB8F048A828B838CF0120B82F530
:1006F60082C007C006C0051207A1D005D006D007E4
:1007060074022DFAE43EFB8F048A828B838CF012EE
:100716000B82F582C007C006C0051207B1D005D00E
:1007260006D00774032DFAE43EFB8F048A828B837E
:100736008CF0120B82F582C007C006C00512078E28
:10074600D005D006D00774042DFDE43EFE8D828EC2
:10075600838FF0120B82FDA3120B82FE8D828E8395
:10076600020798AFCD7E00ACCC7D00EC4206ED4290
:10077600078E828F8322E5C823540124FF22AF828D
:1007860074CF55C84FF5C822AF8274CE55C84FF501
:10079600C822AE82AF838FCD8ECC22AF8274DF5556
:1007A600A8FEEFC42354E04EF5A822AF8274DF55AD
:1007B600B8FEEFC42354E04EF5B822AF8274F75565
:1007C600C8FEEFC40354F84EF5C822AF82747F55B5
:1007D60087FEEF0354804EF58722E58224FF929C24
:1007E60022AD82AE83AFF074052DFAE43EFB8F0492
:1007F6008A828B838CF0120B82F582C007C006C0FA
:10080600051207D1D005D006D00774062DFAE43EAE
:10081600FB8F048A828B838CF0120B82F582C007D1
:10082600C006C0051207E0D005D006D00774042D17
:10083600FAE43EFB8F048A828B838CF0120B82F5DE
:1008460082C007C006C005120A23D005D006D0070D
:1008560074032DFAE43EFB8F048A828B838CF0129C
:100866000B82F582C007C006C005120A33D005D038
:1008760006D00774022DFAE43EFB8F048A828B832E
:100886008CF0120B82F582C007C006C005120A3A28
:10089600D005D006D00774072DFAE43EFB8F048AF4
:1008A600828B838CF0120B82FCBC01028006BC0298
:1008B60002804822753E00753F0075400075410272
:1008C6008D828E838FF0120B82FBA3120B82FC7536
:1008D6004A018B828C83120944E5828583F0F542B6
:1008E60085F043752A3E752B00752C4075820112E2
:1008F60004BF754B017582010204A5754400754558
:10090600007546007547308D828E838FF0120B82FC
:10091600FDA3120B82FE754A028D828E8312094454
:10092600AE82AF838E488F498ECA8FCB90004475B6
:10093600F0401206C975C9027582010206BAAE8276
:10094600AF837D007401B54A02800A7402B54A027B
:1009560080610209DCE58730E72CC3E49E74E19FE1
:100966005004900000228E4B8F4C754D00754E0042
:1009760090E100E4F5F0120B30A982AA83ABF0FCFB
:10098600C3E499FD8050C374809E74709F50049098
:100996000000228E4B8F4C754D00754E0090708076
:1009A600E4F5F0120B30A982AA83ABF0FCC3E499FC
:1009B600FD80238E4B8F4C754D00754E0090460082
:1009C60075F005E4120B30AB82C3E49BFB3395E074
:1009D600FF8B828F83227F008D067C00ED4CF58293
:1009E600EF4EF58322A298E433F58222A299E433EE
:1009F600F5822285829910990280FB22AD82AE8310
:100A0600AFF08D828E838FF0120B82FC600E8C9974
:100A160010990280FB0DBD00E90E80E622AF8274BC
:100A26003F5598FEEF030354C04EF59822E5822405
:100A3600FF92BC22E58224FF92AC22853D82229061
:100A4600002D75F040227F00EF242DF876000FEF81
:100A560024EF50F4753D0022C2AF22D2AF22AE82FF
:100A6600AF838E048F051EBEFF011FEC4D600A7D0D
:100A76006E8D041DEC60EB80F82243E11022AF82FC
:100A860074DF55E1FEEFC42354E04EF5E122AF8258
:100A960074F755E1FEEFC40354F84EF5E122AF8238
:100AA60074F855E14FF5E122FB7A20E4FCFDFEFFE8
:100AB600E5822582F582E58333F583E5F033F5F0AB
:100AC600EB33FB4017DAE98042E5822582F582E5C1
:100AD6008333F583E5F033F5F0EB33FBEC33FCEDD4
:100AE60033FDEE33FEEF33FFEC954BED954CEE9573
:100AF6004DEF954E4013EC954BFCED954CFDEE9568
:0D0B06004DFEEF954EFF438201DABEEB225B
:06003500E478FFF6D8FD9F
:100013007900E94400601B7A00900BC5780175A054
:1000230000E493F2A308B8000205A0D9F4DAF2754C
:02003300A0FF2C
:100B1300E582854BF0A4C582C0F0854CF0A4D0F0EB
:0D0B230025F0C583854BF0A42583F58322C2
:10003B007800E84400600A790175A000E4F309D860
:10004B00FC7800E84400600C7900900001E4F0A318
:04005B00D8FCD9FAFA
:100B3000FBC2D530E715D2D5E4C39582F582E495A2
:100B400083F583E495F0F5F0E49BFBE54E30E71781
:100B5000B2D5E4C3954BF54BE4954CF54CE4954D7B
:100B6000F54DE4954EF54EEB120AAE30D513FBE48D
:100B7000C39582F582E49583F583E495F0F5F0E47E
:020B80009B22B6
:0D00060075814E120B9EE58260030200031F
:100B820020F71430F6148883A88220F507E6A8839C
:100B920075830022E280F7E49322E022758200222C
:00000001FF
