:10007500AF82AC08AD09AE0A8C828D838EF0120B6F
:10008500F3F5148F82C007C006C005C0041200E84E
:10009500D004D005D006D0070CBC00010D8C828D94
:1000A500838EF0120BF3F5148F8202011EE582FF99
:1000B50024FC402EEF2F2F9000C0730200CC0200CD
:1000C500D30200DA0200E1E51424FF92A822E51428
:1000D50024FF92AA22E51424FF92C222E51424FFEC
:1000E50092C622E582FF24FC402EEF2F2F9000F6CA
:1000F50073020102020109020110020117E514242D
:10010500FF928822E51424FF928A22E51424FF92A7
:10011500C022E51424FF92C422E582FF24FC402E70
:10012500EF2F2F90012C7302013802013F02014687
:1001350002014DE51424FF92B822E51424FF92BA7A
:1001450022E51424FF92C322E51424FF92C722AFAF
:1001550082E50C7008850B148F820201E5850B146E
:100165008F82020221E582FF24FB4029EF2F2F9089
:1001750001787302018702018B02018F020193024C
:10018500019785148022851490228514A022851458
:10019500B0228514E822AF827E00EF24FB4037EFC2
:1001A5002F2F9001AB730201BA0201C10201C802EF
:1001B50001CF0201D6E5145580FE801AE51455904D
:1001C500FE8013E51455A0FE800CE51455B0FE80A5
:1001D50005E51455E8FEEE7003F5822275820122CD
:1001E500E582FF24FB4034EF2F2F9001F3730202C9
:1001F5000202020802020E02021402021AE514F4B7
:10020500528022E514F4529022E514F452A022E51E
:1002150014F452B022E514F4FF52E822E582FF24DB
:10022500FB402EEF2F2F90022F7302023E02024356
:1002350002024802024D020252E514428022E514F0
:10024500429022E51442A022E51442B022E5144270
:10025500E822E582FF24FB4074EF2F2F900265739F
:1002650002027402028702029A0202AD0202C0E58E
:1002750014F4FFE5805207E580F4FEE5145E4FF5C2
:100285008022E514F4FFE5905207E590F4FEE514AD
:100295005E4FF59022E514F4FFE5A05207E5A0F4C2
:1002A500FEE5145E4FF5A022E514F4FFE5B0520714
:1002B500E5B0F4FEE5145E4FF5B022E514F4FFE574
:1002C500E85207E5E8F4FEE5145E4FF5E822AF8253
:1002D500747F55E7FEEF0354804EF5E722AE82AFFB
:1002E50083C3EF9420E433FDC374FF9E742F9FE412
:1002F50033FC4D6002C322758201C007C00612029D
:10030500D3D006D0078E828F8312036F75820312B6
:10031500037812037C900001120AD5120325D3221B
:100325007582001202D390000012036F75820012CD
:10033500037875E2FF22AE82AF83758201C007C0E4
:10034500061202D3D006D0078E828F8312036F75F3
:10035500820112037812037C900001120AD5AFE2E4
:10036500C007120325D0078F8222AE82AF838EE4A9
:100375008FE3228582E52275E64675E6B922AE82CF
:10038500AF83C3EF9420E433FDC374FF9E742F9FA6
:10039500E433FC4D600122758201C007C0061202DC
:1003A500D3D006D0078E828F8312036F7582021217
:1003B5000378850DE212037C900001120AD5020331
:1003C50025AF82747F55E74480F5E774BF55E7FE96
:1003D500EF030354C04EF5E774DF55E74420F5E716
:0103E50022F5
:0400000002001932AF
:01000B0032C2
:03001300020415CF
:0300720002001673
:03001600020410D1
:1003E600753201753300750832750900750A407556
:1003F60082011200757514017582011200B2120A8B
:10040600D27514FF75820102016A1203E680FEC0EE
:1004160020C0E0C0F0C082C083C007C006C005C0CF
:1004260004C003C002C001C000C0D075D00075145E
:1004360004758201120257D0D0D000D001D002D06C
:1004460003D004D005D006D007D083D082D0F0D018
:10045600E0D02032AE82AF83E4F50FF510E50E242E
:10046600FC4034E50E75F003A49004737302047F18
:1004760002048702048F020497750FFF75101F8010
:1004860016750FFF7510FF800E750FFF7510008033
:1004960006750FFF7510008E148F1590000C120B49
:1004A60084AE82AF837B007A0075140BE4F515F5F4
:1004B60016F5178E828F838BF0EA120BA1AA82ABF8
:1004C60083AEF0FFA80FA9107C007D00C3EA98EB6D
:1004D60099EE9CEF64808DF063F08095F040049077
:1004E6000000227401250FFCE43510FD8C008D01FF
:1004F600E4FCFDE8C39AFAE99BFBEC9EED9F8A8239
:100506008B8322AF82BF00028005BF010F8007E503
:100516001424FF928C22E51424FF928E22AF82AC23
:1005260011AD12AE138C828D838EF0120BF3F5147F
:100536008F82C007C006C005C004120629D004D0A9
:1005460005D006D00774012CF9E43DFA8E038982A2
:100556008A838BF0120BF3F5148F82C007C006C096
:1005660005C004120692D004D005D006D007740246
:100576002CF9E43DFA8E0389828A838BF0120BF301
:10058600F5148F82C007C006C005C0041206ACD0A1
:1005960004D005D006D00774032CF9E43DFA8E0387
:1005A60089828A838BF0120BF3F5148F82C007C001
:1005B60006C005C004120654D004D005D006D007E4
:1005C60074042CFCE43DFD8C828D838EF0120BF3BB
:1005D600F514A3120BF3F5158F82020678AF82BFCE
:1005E60000028005BF01248011AF8C7E00AC8A7D9D
:1005F60000EC4EF582ED4FF58322AF8D7E00AC8B7D
:100606007D00EC4EF582ED4FF5832290000022AF7F
:1006160082BF00028005BF01088003A28D22A28F3F
:1006260022C322AF82BF00028005BF0120800F7463
:10063600FB5589FFE514251425E04FF5892274BF83
:100646005589FFE514030354C0FE4FF58922AF8296
:10065600BF00028005BF0119800974FC5589451445
:10066600F5892274CF5589FFE514C454F0FE4FF581
:100676008922AF82BF00028005BF010F8007851562
:100686008C85148A2285158D85148B22AF82BF0036
:10069600028005BF010F8007E51424FF92A922E519
:1006A6001424FF92AB22AF82BF00028005BF010F68
:1006B6008007E51424FF92B922E51424FF92BB2299
:1006C60085821485831590000C120B84AE82AF834D
:1006D6007D007C0075140BE4F515F516F5178E8272
:1006E6008F838DF0EC120BA1AC82AD83AEF0FFC30D
:1006F600EC94FFED94FFEE9400EF64809480400448
:1007060090000022C3E49CFCE49DFDE49EE49F8CE3
:10071600828D8322C2CF22E58224FF92CA22AD8235
:10072600AE83AFF0120BF3F582C007C006C0051208
:1007360007DAD005D006D00774012DFAE43EFB8F08
:10074600048A828B838CF0120BF3F582C007C006F5
:10075600C0051207FAD005D006D00774022DFAE4B8
:100766003EFB8F048A828B838CF0120BF3F582C0DA
:1007760007C006C00512080AD005D006D0077403C4
:100786002DFAE43EFB8F048A828B838CF0120BF3E6
:10079600F582C007C006C0051207E1D005D006D015
:1007A6000774042DFDE43EFE8D828E838FF0120BBE
:1007B600F3FDA3120BF3FE8D828E830207EBAFCD02
:1007C6007E00ACCC7D00EC4206ED42078E828F8324
:1007D60022A2CF22E58224FF92C922AF8274CE558F
:1007E600C84FF5C822AE82AF838F058DCD8DCB8ED7
:1007F600CC8ECA22AF8274DF55A8FEEFC42354E024
:100806004EF5A822AF8274DF55B8FEEFC42354E03C
:100816004EF5B822E58224FF92CB22AF82747F5533
:1008260087FEEF0354804EF58722E58224FF929CD3
:1008360022AD82AE83AFF074052DFAE43EFB8F0441
:100846008A828B838CF0120BF3F582C007C006C038
:1008560005120821D005D006D00774062DFAE43E0D
:10086600FB8F048A828B838CF0120BF3F582C00710
:10087600C006C005120830D005D006D00774042D76
:10088600FAE43EFB8F048A828B838CF0120BF3F51D
:1008960082C007C006C005120A94D005D006D0074C
:1008A60074032DFAE43EFB8F048A828B838CF0124C
:1008B6000BF3F582C007C006C005120AA4D005D006
:1008C60006D00774022DFAE43EFB8F048A828B83DE
:1008D6008CF0120BF3F582C007C006C005120AABF6
:1008E600D005D006D00774072DFAE43EFB8F048AA4
:1008F600828B838CF0120BF3FCBC01028006BC02D7
:100906000280482275450075460075470075480205
:100916008D828E838FF0120BF3FBA3120BF3FC7503
:1009260051018B828C83120992E5828583F0F54909
:1009360085F04A75114575120075134075820112CE
:100946000523751401758201020509754B00754C66
:1009560000754D00754E308D828E838FF0120BF32D
:10096600FDA3120BF3FE7551028D828E831209923E
:10097600E5828583F0F54F85F05090004B75F04089
:1009860012072475C90275820102071DAE82AF8364
:100996007D007401B55102800B7402B55103020A41
:1009A6002A020A4DE58730E73D8E018F027B007CE7
:1009B60000C3E49974E19AE49B74808CF063F08040
:1009C60095F050049000002289148A158B168C1716
:1009D60090E100E4F5F0120BA1A982AA83ABF0FC2A
:1009E600C3E499FD80618E018F027B007C00C37495
:1009F600809974709AE49B74808CF063F08095F013
:100A060050049000002289148A158B168C1790705A
:100A160080E4F5F0120BA1A982AA83ABF0FCC3E433
:100A260099FD80238E148F15751600751700904654
:100A36000075F005E4120BA1AB82C3E49BFB339572
:100A4600E0FF8B828F83227F008D067C00ED4CF5C4
:100A560082EF4EF58322A298E433F58222A299E42E
:100A660033F5822285829910990280FB22AD82AEEF
:100A760083AFF08D828E838FF0120BF3FC600E8CA9
:100A86009910990280FB0DBD00E90E80E622AF8227
:100A9600743F5598FEEF030354C04EF59822E58245
:100AA60024FF92BC22E58224FF92AC228544822256
:100AB60090003475F040227F00EF2434F876000F62
:100AC600EF24EF50F475440022C2AF22D2AF22AE1B
:100AD60082AF838E048F051EBEFF011FEC4D600A98
:100AE6007D6E8D041DEC60EB80F82243E11022AF91
:100AF6008274DF55E1FEEFC42354E04EF5E122AFE8
:100B06008274F755E1FEEFC40354F84EF5E122AFC7
:100B16008274F855E14FF5E122FB7A20E4FCFDFEF4
:100B2600FFE5822582F582E58333F583E5F033F52B
:100B3600F0EB33FB4017DAE98042E5822582F58245
:100B4600E58333F583E5F033F5F0EB33FBEC33FC6B
:100B5600ED33FDEE33FEEF33FFEC9514ED9515EE18
:100B66009516EF95174013EC9514FCED9515FDEED3
:0E0B76009516FEEF9517FF438201DABEEB22C3
:06004800E478FFF6D8FD8C
:100026007900E94400601B7A00900C13780175A0F2
:1000360000E493F2A308B8000205A0D9F4DAF27539
:02004600A0FF19
:100B8400E5828514F0A4C582C0F08515F0A4D0F0E8
:0D0B940025F0C5838514F0A42583F5832288
:10004E007800E84400600A790175A000E4F309D84D
:10005E00FC7800E84400600C7900900001E4F0A305
:04006E00D8FCD9FAE7
:100BA100FBC2D530E715D2D5E4C39582F582E49531
:100BB10083F583E495F0F5F0E49BFBE51730E71747
:100BC100B2D5E4C39514F514E49515F515E495161D
:100BD100F516E49517F517EB120B1F30D513FBE44F
:100BE100C39582F582E49583F583E495F0F5F0E40D
:020BF1009B2245
:0D001900758151120C0FE582600302001684
:100BF30020F71430F6148883A88220F507E6A8832B
:100C030075830022E280F7E49322E02275820022BA
:00000001FF
