:03000000020006F5
:03005F0002000399
:0300030002008375
:20006200750880750925750A01750B00750C01750D00750E0190000875F040120887020B6B
:15008200211200629001F4120B24900C6275F080120AC580EFDB
:0E0C620048656C6C6F2C776F726C640D0A0025
:20009700AF82AC10AD11AE128C828D838EF0120C42F51C8F82C007C006C005C00412010A8D
:2000B700D004D005D006D0070CBC00010D8C828D838EF0120C42F51C8F82020140E582FF36
:2000D70024FC402EEF2F2F9000E2730200EE0200F50200FC020103E51C24FF92A822E51CDD
:2000F70024FF92AA22E51C24FF92C222E51C24FF92C622E582FF24FC402EEF2F2F90011846
:200117007302012402012B020132020139E51C24FF928822E51C24FF928A22E51C24FF9217
:20013700C022E51C24FF92C422E582FF24FC500122EF2F2F90014F7302015B0201750201B8
:20015700940201AC74FE55B8FF7401551C4FF5B874FE55B7FFE51C0354014FF5B72274FB83
:2001770055B8FF7401551C25E025E04FF5B874FB55B7FF7402551C25E04FF5B722E51C13D9
:20019700920092C374BF55B7FF7402551C030354C04FF5B722E51C13920092C7747F55B707
:0C01B700FF7402551C0354804FF5B72262
:2001C300AF82E514700885131C8F8202025485131C8F82020290E582FF24FB4029EF2F2FC9
:2001E3009001E7730201F60201FA0201FE020202020206851C8022851C9022851CA022858C
:200203001CB022851CE822AF827E00EF24FB4037EF2F2F90021A7302022902023002023706
:2002230002023E020245E51C5580FE801AE51C5590FE8013E51C55A0FE800CE51C55B0FEC7
:200243008005E51C55E8FEEE7003F5822275820122E582FF24FB4034EF2F2F900262730217
:20026300027102027702027D020283020289E51CF4528022E51CF4529022E51CF452A0220D
:20028300E51CF452B022E51CF4FF52E822E582FF24FB402EEF2F2F90029E730202AD02025A
:2002A300B20202B70202BC0202C1E51C428022E51C429022E51C42A022E51C42B022E51C54
:2002C30042E822E582FF24FB4074EF2F2F9002D4730202E30202F602030902031C02032F2C
:2002E300E51CF4FFE5805207E580F4FEE51C5E4FF58022E51CF4FFE5905207E590F4FEE59F
:200303001C5E4FF59022E51CF4FFE5A05207E5A0F4FEE51C5E4FF5A022E51CF4FFE5B052E1
:1F03230007E5B0F4FEE51C5E4FF5B022E51CF4FFE5E85207E5E8F4FEE51C5E4FF5E82232
:20034200AF82747F55E7FEEF0354804EF5E722AE82AF83C3EF9420E433FDC374FF9E742FD8
:200362009FE433FC4D6002C322758201C007C006120342D006D0078E828F831203DE7582A0
:20038200031203E71203EB900001120B24120394D3227582001203429000001203DE758224
:2003A200001203E775E2FF22AE82AF83758201C007C006120342D006D0078E828F831203A5
:2003C200DE7582011203E71203EB900001120B24AFE2C007120394D0078F8222AE82AF830A
:2003E2008EE48FE3228582E52275E64675E6B922AE82AF83C3EF9420E433FDC374FF9E74EC
:200402002F9FE433FC4D600122758201C007C006120342D006D0078E828F831203DE758294
:13042200021203E78515E21203EB900001120B24020394E2
:19043500AF8274FE558E4FF58E22AF8274FD558EFEEFF425E04EF58E22D6
:20044E00AE82AF83E4F517F518E51624FC4034E51675F003A49004677302047302047B022F
:20046E00048302048B7517FF75181F80167517FF7518FF800E7517FF75180080067517FFBB
:20048E007518008E1C8F1D90000C120BD3AE82AF837B007A00751C0BE4F51DF51EF51F8E41
:2004AE00828F838BF0EA120BF0AA82AB83AEF0FFA817A9187C007D00C3EA98EB99EE9CEF76
:2004CE0064808DF063F08095F040049000002274012517FCE43518FD8C008D01E4FCFDE8A5
:2004EE00C39AFAE99BFBEC9EED9F8A828B8322AF82BF00028005BF010F8007E51C24FF9243
:20050E008C22E51C24FF928E22AF82AC19AD1AAE1B8C828D838EF0120C42F51C8F82C0074E
:20052E00C006C005C00412061DD004D005D006D00774032CF9E43DFA8E0389828A838BF0F8
:20054E00120C42F51C8F82C007C006C005C004120648D004D005D006D00774042CF9E43D81
:20056E00FA8E0389828A838BF0120C42F51CA3120C42F51D8F82C007C006C005C00412068A
:20058E006CD004D005D006D00774012CF9E43DFA8E0389828A838BF0120C42F51C8F82C070
:2005AE0007C006C005C00412068CD004D005D006D00774022CFCE43DFD8C828D838EF01273
:2005CE000C42F51C8F820206A6AF82BF00028005BF01248011AF8C7E00AC8A7D00EC4EF568
:2005EE0082ED4FF58322AF8D7E00AC8B7D00EC4EF582ED4FF5832290000022AF82BF0002FC
:20060E008005BF01088003A28D22A28F22C322AF82BF00028005BF0120800F74FB5589FF41
:20062E00E51C251C25E04FF5892274BF5589FFE51C030354C0FE4FF58922AF82BF000280EC
:20064E0005BF0119800974FC5589451CF5892274CF5589FFE51CC454F0FE4FF58922AF828F
:20066E00BF00028005BF01158009AF1D8F8CAE1C8E8A22AF1D8F8DAE1C7F008E8B22AF8240
:20068E00BF00028005BF010F8007E51C24FF92A922E51C24FF92AB22AF82BF00028005BF76
:2006AE000140801D74FD55B8FFA2D0E433540125E04FF5B874FD55B7FF7402551C4FF5B794
:2006CE002274F755B8FF7401551CC40354F84FF5B874F755B7FF7402551C25E025E0FE4FCA
:0306EE00F5B7223B
:2006F10085821C85831D90000C120BD3AE82AF837D007C00751C0BE4F51DF51EF51F8E82F1
:200711008F838DF0EC120BF0AC82AD83AEF0FFC3EC94FFED94FFEE9400EF648094804004D6
:2007310090000022C3E49CFCE49DFDE49EE49F8C828D832253C87F22AF8274FB55C8FEEF8E
:200751002F25E04EF5C822AD82AE83AFF0120C42F582C007C006C005120813D005D006D057
:200771000774032DFAE43EFB8F048A828B838CF0120C42F582C007C006C00512081DD00548
:20079100D006D00774042DFAE43EFB8F048A828B838CF0120C42FAA3120C42FB8A828B8344
:2007B100C007C006C005120827D005D006D00774012DFAE43EFB8F048A828B838CF0120C13
:2007D10042F582C007C006C005120830D005D006D00774022DFDE43EFE8D828E838FF012C0
:2007F1000C42F582020840AFCD7E00ACCC7D00EC4206ED42078E828F8322E5C823540124F3
:20081100FF22AF8274CF55C84FF5C822AF8274CE55C84FF5C822AE82AF838FCD8ECC22AF40
:200831008274DF55A8FEEFC42354E04EF5A822AF8274DF55B8FE74015FC42354E04EF5B847
:2008510074DF55B7FE530702EFC454F04EF5B722AF8274F755C8FEEFC40354F84EF5C822D5
:20087100AF82747F5587FEEF0354804EF58722E58224FF929C22AD82AE83AFF074022DFA41
:20089100E43EFB8F048A828B838CF0120C42F582C007C006C005120B17D005D006D00774AE
:2008B100032DFAE43EFB8F048A828B838CF0120C42F582C007C006C005120AF6D005D006D1
:2008D100D00774052DFAE43EFB8F048A828B838CF0120C42F582C007C006C005120871D0C6
:2008F10005D006D00774042DFAE43EFB8F048A828B838CF0120C42F582C007C006C0051215
:200911000AE6D005D006D00774062DFAE43EFB8F048A828B838CF0120C42F582C007C00609
:20093100C005120880D005D006D00774072DFAE43EFB8F048A828B838CF0120C42FCBC01C4
:20095100028006BC02028048227521007522007523007524028D828E838FF0120C42FBA357
:20097100120C42FC752D018B828C831209E4E5828583F0F52585F026751921751A00751B6A
:2009910040758201120517751C017582010204FD752700752800752900752A308D828E838D
:2009B1008FF0120C42FDA3120C42FE752D028D828E831209E4AE82AF838E2B8F2C8ECA8FC9
:2009D100CB90002775F04012075875C902758201020749AE82AF837D007401B52D02800B21
:2009F1007402B52D03020A7C020A9FE58730E73D8E018F027B007C00C3E49974E19AE49BD3
:200A110074808CF063F08095F0500490000022891C8A1D8B1E8C1F90E100E4F5F0120BF010
:200A3100A982AA83ABF0FCC3E499FD80618E018F027B007C00C374809974709AE49B748040
:200A51008CF063F08095F0500490000022891C8A1D8B1E8C1F907080E4F5F0120BF0A9828A
:200A7100AA83ABF0FCC3E499FD80238E1C8F1D751E00751F0090460075F005E4120BF0AB68
:200A910082C3E49BFB3395E0FF8B828F83227F008D067C00ED4CF582EF4EF58322A298E46B
:200AB10033F58222A299E433F5822285829910990280FB22AD82AE83AFF08D828E838FF0E8
:200AD100120C42FC600E8C9910990280FB0DBD00E90E80E622AF82743F5598FEEF0303548F
:200AF100C04EF59822AF8274EF55B8FE74015FC454F04EF5B874EF55B7FE530702EFC40333
:0D0B110054F84EF5B722E58224FF92AC2285
:200B1E00C2AF22D2AF22AE82AF838E048F051EBEFF011FEC4D600A7D6E8D041DEC60EB800B
:020B3E00F8229B
:200B400043E11022AF8274DF55E1FEEFC42354E04EF5E122AF8274F755E1FEEFC40354F865
:0E0B60004EF5E122AF8274F855E14FF5E12227
:200B6E00FB7A20E4FCFDFEFFE5822582F582E58333F583E5F033F5F0EB33FB4017DAE980C0
:200B8E0042E5822582F582E58333F583E5F033F5F0EB33FBEC33FCED33FDEE33FEEF33FFEF
:200BAE00EC951CED951DEE951EEF951F4013EC951CFCED951DFDEE951EFEEF951FFF438219
:050BCE0001DABEEB227C
:06003500E478FFF6D8FD9F
:200013007900E94400601B7A00900C70780175A000E493F2A308B8000205A0D9F4DAF27517
:02003300A0FF2C
:1D0BD300E582851CF0A4C582C0F0851DF0A4D0F025F0C583851CF0A42583F58322A8
:20003B007800E84400600A790175A000E4F309D8FC7800E84400600C7900900001E4F0A3C3
:04005B00D8FCD9FAFA
:200BF000FBC2D530E715D2D5E4C39582F582E49583F583E495F0F5F0E49BFBE51F30E717DD
:200C1000B2D5E4C3951CF51CE4951DF51DE4951EF51EE4951FF51FEB120B6E30D513FBE469
:120C3000C39582F582E49583F583E495F0F5F0E49B22FE
:0D00060075812D120C5EE58260030200037F
:1C0C420020F71430F6148883A88220F507E6A88375830022E280F7E49322E022C1
:040C5E007582002279
:00000001FF
