:03000000020006F5
:03005F0002000399
:030003000200896F
:10006200750880750925E4F50AF50B750C01F50D87
:10007200750E01F50F75100175110190000875F0EC
:1000820040120891020B3B120062900C7C75F080CA
:10009200120ACB758204120B7E758201120B5E90DE
:1000A20001F4120B3E120B5A900C8575F080120A65
:0300B200CB80EC14
:100C7C004D435520626F6F7400726F6F74406C6FD0
:100C8C0063616C626F6172643A5761746368446F3C
:100C9C006720686173206265656E206665656465B2
:040CAC00640D0A00C9
:1000B500AF82AC12AD13AE148C828D838EF0120C10
:1000C5005CF5358F82C007C006C005C00412012348
:1000D500D004D005D006D0070CBC00010D8C828D54
:1000E500838EF0120C5CF5358F82020154E582FF98
:1000F50024FC4029EF2F9000FF738006800B8010B1
:100105008015E53524FF92A822E53524FF92AA2221
:10011500E53524FF92C222E53524FF92C622E58209
:10012500FF24FC4029EF2F900130738006800B805F
:10013500108015E53524FF928822E53524FF928A43
:1001450022E53524FF92C022E53524FF92C422E53D
:1001550082FF24FC500122EF2F90016273800680FC
:100165001E803B805174FE55B8FF740155354FF51F
:10017500B874FE55B7FFE5350354014FF5B7227442
:10018500FB55B8FF7401553525E025E04FF5B874EA
:10019500FB55B7FF7402553525E04FF5B722E53518
:1001A50013920092C374BF55B7FF7402553503030C
:1001B50054C04FF5B722E53513920092C7747F55A9
:1001C500B7FF740255350354804FF5B722AF82E56A
:1001D5001670088515358F820202578515358F8271
:1001E50002028DE582FF24FB4023EF2F9001F5737A
:1001F5008008800A800C800E801085358022853528
:1002050090228535A0228535B0228535E822AF823A
:100215007E00EF24FB4031EF2F900222738008808F
:100225000D80128017801CE5355580FE801AE53556
:100235005590FE8013E53555A0FE800CE53555B08B
:10024500FE8005E53555E8FEEE7003F582227582E0
:100255000122E582FF24FB402EEF2F90026473807C
:1002650008800C801080148018E535F4528022E552
:1002750035F4529022E535F452A022E535F452B01A
:1002850022E535F4FF52E822E582FF24FB4028EF02
:100295002F90029A738008800B800E80118014E5E0
:1002A50035428022E535429022E53542A022E535EA
:1002B50042B022E53542E822E582FF24FB406EEF9D
:1002C5002F9002CA7380088019802A803B804CE5F4
:1002D50035F4FFE5805207E580F4FEE5355E4FF520
:1002E5008022E535F4FFE5905207E590F4FEE5350B
:1002F5005E4FF59022E535F4FFE5A05207E5A0F441
:10030500FEE5355E4FF5A022E535F4FFE5B0520771
:10031500E5B0F4FEE5355E4FF5B022E535F4FFE5D1
:10032500E85207E5E8F4FEE5355E4FF5E822AF82D1
:10033500747F55E7FEEF0354804EF5E722AE82AF9A
:1003450083C3EF9420E433FDC374FF9E742F9FE4B1
:1003550033FC4D600475820022758201C007C0061A
:10036500120333D006D0078E828F831203D3758292
:10037500031203DC1203E0900001120B3E12038905
:10038500758201227582001203339000001203D397
:100395007582001203DC75E2FF22AE82AF8375829F
:1003A50001C007C006120333D006D0078E828F83A3
:1003B5001203D37582011203DC1203E090000112CF
:1003C5000B3EAFE2C007120389D0078F8222AE82AF
:1003D500AF838EE48FE3228582E52275E64675E6D6
:1003E500B922AE82AF83C3EF9420E433FDC374FF1B
:1003F5009E742F9FE433FC4D600122758201C00776
:10040500C006120333D006D0078E828F831203D322
:100415007582021203DC8517E21203E090000112D7
:100425000B3E020389AF8274FE558E4FF58E22AFC7
:100435008274FD558EFEEFF425E04EF58E22AF82D7
:10044500747F55E74480F5E774BF55E7FEEF030376
:1004550054C04EF5E774DF55E74420F5E722AE8238
:10046500AF83E4F519F51AE51824FC4034E5187551
:10047500F003A490047C730204880204900204989B
:100485000204A07519FF751A1F80167519FF751AD4
:10049500FF800E7519FF751A0080067519FF751A0C
:1004A500008E358F3690000C120BEDAE82AF837B3C
:1004B500007A0075350BE4F536F537F5388E828F01
:1004C500838BF0EA120C0AAA82AB83AEF0FFA8195F
:1004D500A91A7C007D00C3EA98EB99EE9CEF648035
:1004E5008DF063F08095F0400490000022740125A2
:1004F50019FCE4351AFDECC39AF582ED9BF58322D0
:10050500AF82BF00028005BF010F8007E53524FFDC
:10051500928C22E53524FF928E22AF82AC1BAD1C56
:10052500AE1D8C828D838EF0120C5CF5358F82C0EA
:1005350007C006C005C00412062FD004D005D0069A
:10054500D00774032CF9E43DFA8E0389828A838BE4
:10055500F0120C5CF5358F82C007C006C005C004DB
:1005650012065AD004D005D006D00774042CF9E43D
:100575003DFA8E0389828A838BF0120C5CF535A3D4
:10058500120C5CF5368F82C007C006C005C0041288
:10059500067ED004D005D006D00774012CF9E43DC1
:1005A500FA8E0389828A838BF0120C5CF5358F8273
:1005B500C007C006C005C004120698D004D005D0F7
:1005C50006D00774022CFCE43DFD8C828D838EF0F1
:1005D500120C5CF5358F820206B2AF82BF00028035
:1005E50005BF01248011AF8C7E00AC8A7D00EC4EE6
:1005F500F582ED4FF58322AF8D7E00AC8B7D00EC4F
:100605004EF582ED4FF5832290000022AF82BF00A8
:10061500028005BF01108007A28DE433F58222A276
:100625008FE433F5822275820022AF82BF000280FB
:1006350005BF0120800F74FB5589FFE5352535255C
:10064500E04FF5892274BF5589FFE535030354C092
:10065500FE4FF58922AF82BF00028005BF011980D8
:100665000974FC55894535F5892274CF5589FFE50F
:1006750035C454F0FE4FF58922AF82BF00028005D4
:10068500BF010F800785368C85358A2285368D8595
:10069500358B22AF82BF00028005BF010F8007E5C1
:1006A5003524FF92A922E53524FF92AB22AF82BF04
:1006B50000028005BF0140801D74FD55B8FFA2D022
:1006C500E433540125E04FF5B874FD55B7FF7402C6
:1006D50055354FF5B72274F755B8FF74015535C434
:1006E5000354F84FF5B874F755B7FF74025535251F
:1006F500E025E0FE4FF5B7228582358583369000EB
:100705000C120BEDAE82AF837D007C0075350BE4DA
:10071500F536F537F5388E828F838DF0EC120C0A9D
:10072500AC82AD83AEF0FFC3EC94FFED94FFEE9485
:1007350000EF64809480400490000022C3E49CF59F
:1007450082E49DF5832253C87F22AF8274FB55C88E
:10075500FEEF2F25E04EF5C822AD82AE83AFF01235
:100765000C5CF582C007C006C00512081DD005D077
:1007750006D00774032DFAE43EFB8F048A828B832F
:100785008CF0120C5CF582C007C006C00512082764
:10079500D005D006D00774042DFAE43EFB8F048AF9
:1007A500828B838CF0120C5CFAA3120C5CFB8A82A0
:1007B5008B83C007C006C005120831D005D006D00E
:1007C5000774012DFAE43EFB8F048A828B838CF03B
:1007D500120C5CF582C007C006C00512083AD005A8
:1007E500D006D00774022DFDE43EFE8D828E838FE8
:1007F500F0120C5CF58202084AAFCD7E00ACCC7DD0
:1008050000EC4206ED42078E828F8322E5C8235411
:100815000124FFE433F58222AF8274CF55C84FF52A
:10082500C822AF8274CE55C84FF5C822AE82AF83B9
:100835008FCD8ECC22AF8274DF55A8FEEFC4235432
:10084500E04EF5A822AF8274DF55B8FE74015FC48F
:100855002354E04EF5B874DF55B7FE530702EFC4D5
:1008650054F04EF5B722AF8274F755C8FEEFC403B6
:1008750054F84EF5C822AF82747F5587FEEF0354B6
:10088500804EF58722E58224FF929C228582218570
:10089500832285F02374042521FAE43522FBAC2359
:1008A5008A828B838CF0120C5CF582120B317405F5
:1008B5002521FAE43522FBAC238A828B838CF01246
:1008C5000C5CF582120B1074072521FAE43522FB26
:1008D500AC238A828B838CF0120C5CF58212087B28
:1008E50074062521FAE43522FBAC238A828B838C9E
:1008F500F0120C5CF582120AEC74082521FAE43535
:1009050022FBAC238A828B838CF0120C5CF582125D
:10091500088A74092521FAE43522FBAC238A828BE7
:10092500838CF0120C5CF582C004C003C002120A6D
:10093500FCD002D003D0048A828B838CF0120C5C2D
:10094500FFBF01028006BF02028058227524007590
:10095500250075260075270285218285228385233A
:10096500F0120C5CFCA3120C5CFDA3120C5CFEA344
:10097500120C5CFF7530018C828D838EF0EF1209AD
:10098500FBE5828583F0F52885F029751B24751C08
:1009950000751D4075820112051F753501758201AF
:1009A500020505752A00752B00752C00752D3085FF
:1009B50021828522838523F0120C5CFCA3120C5C3A
:1009C500FDA3120C5CFEA3120C5CFF7530028C8239
:1009D5008D838EF0EF1209FBAE82AF838E2E8F2FA3
:1009E5008ECA8FCB90002A75F04012075E75C9023A
:1009F50075820102074FAC82AD83AEF0FF7B0074B8
:100A050001B53002800B7402B53003020A84020A74
:100A1500A5E58730E734C3E49C74E19DE49EE49F3B
:100A25005004900000228C358D368E378F3890E13A
:100A350000E4F5F0120B8885823185833285F03329
:100A4500F534AA31C3E49AFB8056C374809C747054
:100A55009DE49EE49F5004900000228C358D368ED7
:100A6500378F38907080E4F5F0120B8885823185D8
:100A7500833285F033F534AA31C3E49AFB80218CA7
:100A8500358D368E378F3890460075F005E4120B9C
:100A950088AC82C3E49CFC3395E0FF8C828F832273
:100AA5007F008B067D00EB4DF582EF4EF58322A28C
:100AB50098E433F58222A299E433F582228582995E
:100AC50010990280FB22AD82AE83AFF08D828E83BA
:100AD5008FF0120C5CFC600E8C9910990280FB0D56
:100AE500BD00E90E80E622AF82743F5598FEEF0304
:100AF5000354C04EF59822AF82BF010353C8CFBF40
:100B0500020874CF55C84430F5C822AF8274EF553A
:100B1500B8FE74015FC454F04EF5B874EF55B7FED6
:100B2500530702EFC40354F84EF5B722E58224FFBC
:100B350092AC22C2AF22D2AF22AE82AF838E048F97
:100B4500051EBEFF011FEC4D600A7D6E8D041DEC78
:100B550060EB80F82243E11022AF8274DF55E1FE9D
:100B6500EFC42354E04EF5E122AF8274F755E1FE60
:100B7500EFC40354F84EF5E122AF8274F855E14F06
:100B8500F5E122FB7A20E4FCFDFEFFE5822582F5F6
:100B950082E58333F583E5F033F5F0EB33FB40175E
:100BA500DAE98042E5822582F582E58333F583E53E
:100BB500F033F5F0EB33FBEC33FCED33FDEE33FEB8
:100BC500EF33FFEC9535ED9536EE9537EF953840DB
:100BD50013EC9535FCED9536FDEE9537FEEF953822
:080BE500FF438201DABEEB229E
:06003500E478FFF6D8FD9F
:100013007900E94400601B7A00900CB0780175A068
:1000230000E493F2A308B8000205A0D9F4DAF2754C
:02003300A0FF2C
:100BED00E5828535F0A4C582C0F08536F0A4D0F03D
:0D0BFD0025F0C5838535F0A42583F58322FE
:10003B007800E84400600A790175A000E4F309D860
:10004B00FC7800E84400600C7900900001E4F0A318
:04005B00D8FCD9FAFA
:100C0A00FBC2D530E715D2D5E4C39582F582E495C7
:100C1A0083F583E495F0F5F0E49BFBE53830E717BC
:100C2A00B2D5E4C39535F535E49536F536E495370E
:100C3A00F537E49538F538EB120B8830D513FBE419
:100C4A00C39582F582E49583F583E495F0F5F0E4A3
:020C5A009B22DB
:0D000600758138120C78E58260030200035A
:100C5C0020F71430F6148883A88220F507E6A883C1
:100C6C0075830022E280F7E49322E0227582002251
:00000001FF
