:03000000020006F5
:03005F0002000399
:0300030002008375
:10006200750880750925750A01750B00750C0175F7
:100072000D00750E0190000875F040120854020A36
:10008200CB1200629001F4120ACE900C0C75F08033
:05009200120A6F80EF6F
:0E0C0C0048656C6C6F2C776F726C640D0A007B
:10009700AF82AC10AD11AE128C828D838EF0120B35
:1000A700ECF51C8F82C007C006C005C0041201050D
:1000B700D004D005D006D0070CBC00010D8C828D72
:1000C700838EF0120BECF51C8F82020136E582FF5E
:1000D70024FC4029EF2F9000E1738006800B8010ED
:1000E7008015E51C24FF92A822E51C24FF92AA2272
:1000F700E51C24FF92C222E51C24FF92C622E5825A
:10010700FF24FC4029EF2F900112738006800B809B
:10011700108015E51C24FF928822E51C24FF928A93
:1001270022E51C24FF92C022E51C24FF92C422E58D
:1001370082FF24FC500122EF2F9001447380068038
:100147001E803B805174FE55B8FF7401551C4FF556
:10015700B874FE55B7FFE51C0354014FF5B7227479
:10016700FB55B8FF7401551C25E025E04FF5B87421
:10017700FB55B7FF7402551C25E04FF5B722E51C68
:1001870013920092C374BF55B7FF7402551C030343
:1001970054C04FF5B722E51C13920092C7747F55E0
:1001A700B7FF7402551C0354804FF5B722AF82E5A1
:1001B70014700885131C8F8202023985131C8F82E5
:1001C70002026FE582FF24FB4023EF2F9001D773D4
:1001D7008008800A800C800E8010851C8022851C78
:1001E7009022851CA022851CB022851CE822AF82A4
:1001F7007E00EF24FB4031EF2F90020473800880CC
:100207000D80128017801CE51C5580FE801AE51CA6
:100217005590FE8013E51C55A0FE800CE51C55B0DB
:10022700FE8005E51C55E8FEEE7003F58222758217
:100237000122E582FF24FB402EEF2F9002467380B8
:1002470008800C801080148018E51CF4528022E589
:100257001CF4529022E51CF452A022E51CF452B083
:1002670022E51CF4FF52E822E582FF24FB4028EF39
:100277002F90027C738008800B800E80118014E51C
:100287001C428022E51C429022E51C42A022E51C6C
:1002970042B022E51C42E822E582FF24FB406EEFD4
:1002A7002F9002AC7380088019802A803B804CE530
:1002B7001CF4FFE5805207E580F4FEE51C5E4FF570
:1002C7008022E51CF4FFE5905207E590F4FEE51C5B
:1002D7005E4FF59022E51CF4FFE5A05207E5A0F478
:1002E700FEE51C5E4FF5A022E51CF4FFE5B05207C2
:1002F700E5B0F4FEE51C5E4FF5B022E51CF4FFE522
:10030700E85207E5E8F4FEE51C5E4FF5E822AF8208
:10031700747F55E7FEEF0354804EF5E722AE82AFB8
:1003270083C3EF9420E433FDC374FF9E742F9FE4CF
:1003370033FC4D6002C322758201C007C006120359
:1003470015D006D0078E828F831203B175820312F0
:1003570003BA1203BE900001120ACE120367D3221A
:100367007582001203159000001203B17582001206
:1003770003BA75E2FF22AE82AF83758201C007C060
:1003870006120315D006D0078E828F831203B1752C
:1003970082011203BA1203BE900001120ACEAFE225
:1003A700C007120367D0078F8222AE82AF838EE425
:1003B7008FE3228582E52275E64675E6B922AE828D
:1003C700AF83C3EF9420E433FDC374FF9E742F9F64
:1003D700E433FC4D600122758201C007C006120399
:1003E70015D006D0078E828F831203B17582021251
:1003F70003BA8515E21203BE900001120ACE02036A
:1004070067AF8274FE558E4FF58E22AF8274FD550D
:100417008EFEEFF425E04EF58E22AE82AF83E4F533
:1004270017F518E51624FC4034E51675F003A4907B
:10043700043A7302044602044E02045602045E752F
:1004470017FF75181F80167517FF7518FF800E7533
:1004570017FF75180080067517FF7518008E1C8F1B
:100467001D90000C120B7DAE82AF837B007A007566
:100477001C0BE4F51DF51EF51F8E828F838BF0EAAA
:10048700120B9AAA82AB83AEF0FFA817A9187C00BB
:100497007D00C3EA98EB99EE9CEF64808DF063F0E2
:1004A7008095F040049000002274012517FCE43584
:1004B70018FD8C008D01E4FCFDE8C39AFAE99BFB6B
:1004C700EC9EED9F8A828B8322AF82BF000280055C
:1004D700BF010F8007E51C24FF928C22E51C24FF37
:1004E700928E22AF82AC19AD1AAE1B8C828D838E91
:1004F700F0120BECF51C8F82C007C006C005C004C4
:100507001205F0D004D005D006D00774032CF9E407
:100517003DFA8E0389828A838BF0120BECF51C8FD0
:1005270082C007C006C005C00412061BD004D00550
:10053700D006D00774042CF9E43DFA8E0389828A29
:10054700838BF0120BECF51CA3120BECF51D8F82BD
:10055700C007C006C005C00412063FD004D005D0AE
:1005670006D00774012CF9E43DFA8E0389828A8349
:100577008BF0120BECF51C8F82C007C006C005C0BC
:1005870004120659D004D005D006D00774022CFCFB
:10059700E43DFD8C828D838EF0120BECF51C8F826F
:1005A700020673AF82BF00028005BF01248011AF2E
:1005B7008C7E00AC8A7D00EC4EF582ED4FF58322F0
:1005C700AF8D7E00AC8B7D00EC4EF582ED4FF58351
:1005D7002290000022AF82BF00028005BF01088081
:1005E70003A28D22A28F22C322AF82BF0002800501
:1005F700BF0120800F74FB5589FFE51C251C25E0F2
:100607004FF5892274BF5589FFE51C030354C0FECB
:100617004FF58922AF82BF00028005BF011980090B
:1006270074FC5589451CF5892274CF5589FFE51C53
:10063700C454F0FE4FF58922AF82BF00028005BF88
:10064700010F8007851D8C851C8A22851D8D851CC1
:100657008B22AF82BF00028005BF010F8007E51C18
:1006670024FF92A922E51C24FF92AB22AF82BF0090
:10067700028005BF0140801D74FD55B8FFA2D0E47C
:1006870033540125E04FF5B874FD55B7FF74025593
:100697001C4FF5B72274F755B8FF7401551CC403F6
:1006A70054F84FF5B874F755B7FF7402551C25E099
:1006B70025E0FE4FF5B72285821C85831D90000C2F
:1006C700120B7DAE82AF837D007C00751C0BE4F5B9
:1006D7001DF51EF51F8E828F838DF0EC120B9AACE1
:1006E70082AD83AEF0FFC3EC94FFED94FFEE940070
:1006F700EF64809480400490000022C3E49CFCE4F3
:100707009DFDE49EE49F8C828D832253C87F22AF98
:100717008274FB55C8FEEF2F25E04EF5C822AD8247
:10072700AE83AFF0120BECF582C007C006C005120E
:1007370007E0D005D006D00774032DFAE43EFB8FFF
:10074700048A828B838CF0120BECF582C007C006FB
:10075700C0051207EAD005D006D00774042DFAE4C5
:100767003EFB8F048A828B838CF0120BECFAA31268
:100777000BECFB8A828B83C007C006C0051207F407
:10078700D005D006D00774012DFAE43EFB8F048A0A
:10079700828B838CF0120BECF582C007C006C00574
:1007A7001207FDD005D006D00774022DFDE43EFEEA
:1007B7008D828E838FF0120BECF58202080DAFCD80
:1007C7007E00ACCC7D00EC4206ED42078E828F8323
:1007D70022E5C823540124FF22AF8274CF55C84FA6
:1007E700F5C822AF8274CE55C84FF5C822AE82AF86
:1007F700838FCD8ECC22AF8274DF55A8FEEFC42342
:1008070054E04EF5A822AF8274DF55B8FE74015F3D
:10081700C42354E04EF5B874DF55B7FE530702EF13
:10082700C454F04EF5B722AF8274F755C8FEEFC433
:100837000354F84EF5C822AF82747F5587FEEF0345
:1008470054804EF58722E58224FF929C22AD82AE2A
:1008570083AFF074022DFAE43EFB8F048A828B8308
:100867008CF0120BECF582C007C006C005120AC156
:10087700D005D006D00774032DFAE43EFB8F048A17
:10088700828B838CF0120BECF582C007C006C00583
:10089700120AA0D005D006D00774052DFAE43EFB56
:1008A7008F048A828B838CF0120BECF582C007C011
:1008B70006C00512083ED005D006D00774042DFAED
:1008C700E43EFB8F048A828B838CF0120BECF5825B
:1008D700C007C006C005120A90D005D006D007741D
:1008E700062DFAE43EFB8F048A828B838CF0120B71
:1008F700ECF582C007C006C00512084DD005D0062A
:10090700D00774072DFAE43EFB8F048A828B838C11
:10091700F0120BECFCBC01028006BC0202804822EC
:100927007521007522007523007524028D828E8340
:100937008FF0120BECFBA3120BECFC752D018B82D5
:100947008C831209B1E5828583F0F52585F026753C
:100957001921751A00751B407582011204EA751C6E
:10096700017582010204D0752700752800752900DA
:10097700752A308D828E838FF0120BECFDA3120B3C
:10098700ECFE752D028D828E831209B1AE82AF8384
:100997008E2B8F2C8ECA8FCB90002775F0401207B5
:1009A7002575C902758201020716AE82AF837D00E5
:1009B7007401B52D02800A7402B52D028061020A06
:1009C70049E58730E72CC3E49E74E19F500490000B
:1009D70000228E1C8F1D751E00751F0090E100E41C
:1009E700F5F0120B9AA982AA83ABF0FCC3E499FD38
:1009F7008050C374809E74709F5004900000228EB4
:100A07001C8F1D751E00751F00907080E4F5F01295
:100A17000B9AA982AA83ABF0FCC3E499FD80238ECD
:100A27001C8F1D751E00751F0090460075F005E4AC
:100A3700120B9AAB82C3E49BFB3395E0FF8B828F4B
:100A470083227F008D067C00ED4CF582EF4EF58307
:100A570022A298E433F58222A299E433F582228513
:100A6700829910990280FB22AD82AE83AFF08D820E
:100A77008E838FF0120BECFC600E8C99109902801C
:100A8700FB0DBD00E90E80E622AF82743F5598FE4C
:100A9700EF030354C04EF59822AF8274EF55B8FEAA
:100AA70074015FC454F04EF5B874EF55B7FE5307A1
:100AB70002EFC40354F84EF5B722E58224FF92AC47
:100AC70022C2AF22D2AF22AE82AF838E048F051E21
:100AD700BEFF011FEC4D600A7D6E8D041DEC60EBBF
:100AE70080F82243E11022AF8274DF55E1FEEFC4A4
:100AF7002354E04EF5E122AF8274F755E1FEEFC4CF
:100B07000354F84EF5E122AF8274F855E14FF5E151
:100B170022FB7A20E4FCFDFEFFE5822582F582E5D3
:100B27008333F583E5F033F5F0EB33FB4017DAE970
:100B37008042E5822582F582E58333F583E5F0334C
:100B4700F5F0EB33FBEC33FCED33FDEE33FEEF3327
:100B5700FFEC951CED951DEE951EEF951F4013ECD0
:100B6700951CFCED951DFDEE951EFEEF951FFF43B1
:060B77008201DABEEB2250
:06003500E478FFF6D8FD9F
:100013007900E94400601B7A00900C1A780175A0FE
:1000230000E493F2A308B8000205A0D9F4DAF2754C
:02003300A0FF2C
:100B7D00E582851CF0A4C582C0F0851DF0A4D0F0DF
:0D0B8D0025F0C583851CF0A42583F5832287
:10003B007800E84400600A790175A000E4F309D860
:10004B00FC7800E84400600C7900900001E4F0A318
:04005B00D8FCD9FAFA
:100B9A00FBC2D530E715D2D5E4C39582F582E49538
:100BAA0083F583E495F0F5F0E49BFBE51F30E71746
:100BBA00B2D5E4C3951CF51CE4951DF51DE4951EFC
:100BCA00F51EE4951FF51FEB120B1830D513FBE445
:100BDA00C39582F582E49583F583E495F0F5F0E414
:020BEA009B224C
:0D00060075812D120C08E5826003020003D5
:100BEC0020F71430F6148883A88220F507E6A88332
:100BFC0075830022E280F7E49322E02275820022C2
:00000001FF
