:10007200AF82AC08AD09AE0A8C828D838EF0120C71
:100082001AF5148F82C007C006C005C0041200E52D
:10009200D004D005D006D0070CBC00010D8C828D97
:1000A200838EF0120C1AF5148F8202011BE582FF77
:1000B20024FC402EEF2F2F9000BD730200C90200D6
:1000C200D00200D70200DEE51424FF92A822E51434
:1000D20024FF92AA22E51424FF92C222E51424FFEF
:1000E20092C622E582FF24FC402EEF2F2F9000F3D0
:1000F200730200FF02010602010D020114E514243D
:10010200FF928822E51424FF928A22E51424FF92AA
:10011200C022E51424FF92C422E582FF24FC402E73
:10012200EF2F2F9001297302013502013C02014396
:1001320002014AE51424FF92B822E51424FF92BA80
:1001420022E51424FF92C322E51424FF92C722AFB2
:1001520082E50C7008850B148F820201E2850B1474
:100162008F8202021EE582FF24FB4029EF2F2F908F
:1001720001757302018402018802018C020190025E
:10018200019485148022851490228514A02285145E
:10019200B0228514E822AF827E00EF24FB4037EFC5
:1001A2002F2F9001A8730201B70201BE0201C502FE
:1001B20001CC0201D3E5145580FE801AE514559056
:1001C200FE8013E51455A0FE800CE51455B0FE80A8
:1001D20005E51455E8FEEE7003F5822275820122D0
:1001E200E582FF24FB4034EF2F2F9001F0730201D0
:1001F200FF02020502020B020211020217E514F4C9
:10020200528022E514F4529022E514F452A022E521
:1002120014F452B022E514F4FF52E822E582FF24DE
:10022200FB402EEF2F2F90022C7302023B02024062
:1002320002024502024A02024FE514428022E514FC
:10024200429022E51442A022E51442B022E5144273
:10025200E822E582FF24FB4074EF2F2F90026273A5
:100262000202710202840202970202AA0202BDE5A0
:1002720014F4FFE5805207E580F4FEE5145E4FF5C5
:100282008022E514F4FFE5905207E590F4FEE514B0
:100292005E4FF59022E514F4FFE5A05207E5A0F4C5
:1002A200FEE5145E4FF5A022E514F4FFE5B0520717
:1002B200E5B0F4FEE5145E4FF5B022E514F4FFE577
:1002C200E85207E5E8F4FEE5145E4FF5E822AF8256
:1002D200747F55E7FEEF0354804EF5E722AE82AFFE
:1002E20083C3EF9420E433FDC374FF9E742F9FE415
:1002F20033FC4D6002C322758201C007C0061202A0
:10030200D0D006D0078E828F8312036C75820312BF
:100312000375120379900001120AFC120322D32200
:100322007582001202D090000012036C75820012D6
:10033200037575E2FF22AE82AF83758201C007C0EA
:10034200061202D0D006D0078E828F8312036C75FC
:100352008201120375120379900001120AFCAFE2C6
:10036200C007120322D0078F8222AE82AF838EE4AF
:100372008FE3228582E52275E64675E6B922AE82D2
:10038200AF83C3EF9420E433FDC374FF9E742F9FA9
:10039200E433FC4D600122758201C007C0061202DF
:1003A200D0D006D0078E828F8312036C7582021220
:1003B2000375850DE2120379900001120AFC020313
:1003C20022AF82747F55E74480F5E774BF55E7FE9C
:1003D200EF030354C04EF5E774DF55E74420F5E719
:0103E20022F8
:0400000002001132B7
:03000B00020422CA
:08006A00E4F538F53902000E3F
:03000E0002041DCC
:1003E300753200753301753401753501750E019051
:1003F300C350120481E5828583F0F53685F03775A5
:10040300113275120075134075820012054A751476
:1004130001758200120530020AF91203E380FEC05F
:1004230020C0E0C0F0C082C083C007C006C005C0C2
:1004330004C003C002C001C000C0D075D00005389D
:10044300E4B538020539740AB53806E4B5390280D3
:1004530002800E751404758201120254E4F538F516
:1004630039D0D0D000D001D002D003D004D005D0F1
:1004730006D007D083D082D0F0D0E0D02032AE8235
:10048300AF83E4F50FF510E50E24FC4034E50E755B
:10049300F003A490049A730204A60204AE0204B605
:1004A3000204BE750FFF75101F8016750FFF7510C0
:1004B300FF800E750FFF7510008006750FFF751016
:1004C300008E148F1590000C120BABAE82AF837BA2
:1004D300007A0075140BE4F515F516F5178E828F67
:1004E300838BF0EA120BC8AA82AB83AEF0FFA80F8E
:1004F300A9107C007D00C3EA98EB99EE9CEF648021
:100503008DF063F08095F040049000002274012583
:100513000FFCE43510FD8C008D01E4FCFDE8C39A6B
:10052300FAE99BFBEC9EED9F8A828B8322AF82BF0D
:1005330000028005BF010F8007E51424FF928C227F
:10054300E51424FF928E22AF82AC11AD12AE138C50
:10055300828D838EF0120C1AF5148F82C007C006A9
:10056300C005C004120650D004D005D006D00774CD
:10057300012CF9E43DFA8E0389828A838BF0120CF5
:100583001AF5148F82C007C006C005C0041206B94D
:10059300D004D005D006D00774022CF9E43DFA8EBE
:1005A3000389828A838BF0120C1AF5148F82C00799
:1005B300C006C005C0041206D3D004D005D006D0AF
:1005C3000774032CF9E43DFA8E0389828A838BF046
:1005D300120C1AF5148F82C007C006C005C004129E
:1005E300067BD004D005D006D00774042CFCE43D70
:1005F300FD8C828D838EF0120C1AF514A3120C1A43
:10060300F5158F8202069FAF82BF00028005BF01EE
:10061300248011AF8C7E00AC8A7D00EC4EF582ED18
:100623004FF58322AF8D7E00AC8B7D00EC4EF582BF
:10063300ED4FF5832290000022AF82BF00028005B8
:10064300BF01088003A28D22A28F22C322AF82BFE3
:1006530000028005BF0120800F74FB5589FFE5145C
:10066300251425E04FF5892274BF5589FFE514034E
:100673000354C0FE4FF58922AF82BF00028005BF3D
:100683000119800974FC55894514F5892274CF55E5
:1006930089FFE514C454F0FE4FF58922AF82BF00F1
:1006A300028005BF010F800785158C85148A22857A
:1006B300158D85148B22AF82BF00028005BF010F09
:1006C3008007E51424FF92A922E51424FF92AB22AC
:1006D300AF82BF00028005BF010F8007E51424FF2E
:1006E30092B922E51424FF92BB22858214858315D7
:1006F30090000C120BABAE82AF837D007C007514AF
:100703000BE4F515F516F5178E828F838DF0EC1239
:100713000BC8AC82AD83AEF0FFC3EC94FFED94FF46
:10072300EE9400EF64809480400490000022C3E4C0
:100733009CFCE49DFDE49EE49F8C828D8322C2CFCA
:1007430022E58224FF92CA22AD82AE83AFF0120C5F
:100753001AF582C007C006C005120801D005D006ED
:10076300D00774012DFAE43EFB8F048A828B838CBD
:10077300F0120C1AF582C007C006C005120821D07A
:1007830005D006D00774022DFAE43EFB8F048A825B
:100793008B838CF0120C1AF582C007C006C00512B9
:1007A3000831D005D006D00774032DFAE43EFB8F41
:1007B300048A828B838CF0120C1AF582C007C00660
:1007C300C005120808D005D006D00774042DFDE437
:1007D3003EFE8D828E838FF0120C1AFDA3120C1A2B
:1007E300FE8D828E83020812AFCD7E00ACCC7D00DD
:1007F300EC4206ED42078E828F8322A2CF22E5824E
:1008030024FF92C922AF8274CE55C84FF5C822AED9
:1008130082AF838F058DCD8DCB8ECC8ECA22AF82D6
:1008230074DF55A8FEEFC42354E04EF5A822AF822F
:1008330074DF55B8FEEFC42354E04EF5B822E582C9
:1008430024FF92CB22AF82747F5587FEEF0354803F
:100853004EF58722E58224FF929C22AD82AE83AFC0
:10086300F074052DFAE43EFB8F048A828B838CF0AF
:10087300120C1AF582C007C006C005120848D0053D
:10088300D006D00774062DFAE43EFB8F048A828BD0
:10089300838CF0120C1AF582C007C006C00512083B
:1008A30057D005D006D00774042DFAE43EFB8F041D
:1008B3008A828B838CF0120C1AF582C007C006C0A3
:1008C30005120ABBD005D006D00774032DFAE43E07
:1008D300FB8F048A828B838CF0120C1AF582C0077B
:1008E300C006C005120ACBD005D006D00774022D6E
:1008F300FAE43EFB8F048A828B838CF0120C1AF588
:1009030082C007C006C005120AD2D005D006D007A0
:1009130074072DFAE43EFB8F048A828B838CF012DA
:100923000C1AFCBC01028006BC0202804822754BF3
:1009330000754C00754D00754E028D828E838FF0CD
:10094300120C1AFBA3120C1AFC7557018B828C83B1
:100953001209B9E5828583F0F54F85F05075114B87
:1009630075120075134075820112054A75140175DD
:10097300820102053075510075520075530075549C
:10098300308D828E838FF0120C1AFDA3120C1AFE87
:100993007557028D828E831209B9E5828583F0F53E
:1009A3005585F05690005175F04012074B75C902FA
:1009B300758201020744AE82AF837D007401B5578F
:1009C30002800B7402B55703020A51020A74E587C9
:1009D30030E73D8E018F027B007C00C3E49974E114
:1009E3009AE49B74808CF063F08095F0500490003F
:1009F300002289148A158B168C1790E100E4F5F018
:100A0300120BC8A982AA83ABF0FCC3E499FD8061F1
:100A13008E018F027B007C00C374809974709AE40A
:100A23009B74808CF063F08095F05004900000225A
:100A330089148A158B168C17907080E4F5F0120BCD
:100A4300C8A982AA83ABF0FCC3E499FD80238E146A
:100A53008F1575160075170090460075F005E412A2
:100A63000BC8AB82C3E49BFB3395E0FF8B828F8380
:100A7300227F008D067C00ED4CF582EF4EF583223C
:100A8300A298E433F58222A299E433F58222858287
:100A93009910990280FB22AD82AE83AFF08D828ED6
:100AA300838FF0120C1AFC600E8C9910990280FB54
:100AB3000DBD00E90E80E622AF82743F5598FEEF2C
:100AC300030354C04EF59822E58224FF92BC22E52D
:100AD3008224FF92AC22854A822290003A75F0402C
:100AE300227F00EF243AF876000FEF24EF50F475DD
:100AF3004A0022C2AF22D2AF22AE82AF838E048FCE
:100B0300051EBEFF011FEC4D600A7D6E8D041DECBA
:100B130060EB80F82243E11022AF8274DF55E1FEDF
:100B2300EFC42354E04EF5E122AF8274F755E1FEA2
:100B3300EFC40354F84EF5E122AF8274F855E14F48
:100B4300F5E122FB7A20E4FCFDFEFFE5822582F538
:100B530082E58333F583E5F033F5F0EB33FB4017A0
:100B6300DAE98042E5822582F582E58333F583E580
:100B7300F033F5F0EB33FBEC33FCED33FDEE33FEFA
:100B8300EF33FFEC9514ED9515EE9516EF951740A1
:100B930013EC9514FCED9515FDEE9516FEEF9517E8
:080BA300FF438201DABEEB22E0
:06004000E478FFF6D8FD94
:10001E007900E94400601B7A00900C3A780175A0D3
:10002E0000E493F2A308B8000205A0D9F4DAF27541
:02003E00A0FF21
:100BAB00E5828514F0A4C582C0F08515F0A4D0F0C1
:0D0BBB0025F0C5838514F0A42583F5832261
:100046007800E84400600A790175A000E4F309D855
:10005600FC7800E84400600C7900900001E4F0A30D
:04006600D8FCD9FAEF
:100BC800FBC2D530E715D2D5E4C39582F582E4950A
:100BD80083F583E495F0F5F0E49BFBE51730E71720
:100BE800B2D5E4C39514F514E49515F515E49516F6
:100BF800F516E49517F517EB120B4630D513FBE401
:100C0800C39582F582E49583F583E495F0F5F0E4E5
:020C18009B221D
:0D001100758157120C36E582600302000E67
:100C1A0020F71430F6148883A88220F507E6A88303
:100C2A0075830022E280F7E49322E0227582002293
:00000001FF
