:10009200AF82AC08AD09AE0A8C828D838EF0120B52
:1000A200F7F5148F82C007C006C005C00412010014
:1000B200D004D005D006D0070CBC00010D8C828D77
:1000C200838EF0120BF7F5148F82020131E582FF65
:1000D20024FC4029EF2F9000DC738006800B8010F7
:1000E2008015E51424FF92A822E51424FF92AA2287
:1000F200E51424FF92C222E51424FF92C622E5826F
:10010200FF24FC4029EF2F90010D738006800B80A5
:10011200108015E51424FF928822E51424FF928AA8
:1001220022E51424FF92C022E51424FF92C422E5A2
:1001320082FF24FC4029EF2F90013E738006800B42
:1001420080108015E51424FF92B822E51424FF9252
:10015200BA22E51424FF92C322E51424FF92C72297
:10016200AF82E50C7008850B148F820201E7850BC4
:10017200148F8202021DE582FF24FB4023EF2F90A1
:100182000185738008800A800C800E80108514809F
:1001920022851490228514A0228514B0228514E8A9
:1001A20022AF827E00EF24FB4031EF2F9001B27329
:1001B2008008800D80128017801CE5145580FE8017
:1001C2001AE5145590FE8013E51455A0FE800CE547
:1001D2001455B0FE8005E51455E8FEEE7003F58275
:1001E2002275820122E582FF24FB402EEF2F90012F
:1001F200F4738008800C801080148018E514F45287
:100202008022E514F4529022E514F452A022E5145F
:10021200F452B022E514F4FF52E822E582FF24FBF7
:100222004028EF2F90022A738008800B800E8011E5
:100232008014E514428022E514429022E51442A083
:1002420022E51442B022E51442E822E582FF24FBB3
:10025200406EEF2F90025A7380088019802A803BEB
:10026200804CE514F4FFE5805207E580F4FEE514C6
:100272005E4FF58022E514F4FFE5905207E590F415
:10028200FEE5145E4FF59022E514F4FFE5A0520757
:10029200E5A0F4FEE5145E4FF5A022E514F4FFE5B7
:1002A200B05207E5B0F4FEE5145E4FF5B022E51456
:1002B200F4FFE5E85207E5E8F4FEE5145E4FF5E8E1
:1002C20022AF82747F55E7FEEF0354804EF5E7229A
:1002D200AE82AF83C3EF9420E433FDC374FF9E74F8
:1002E2002F9FE433FC4D6002C322758201C007C018
:1002F200061202C3D006D0078E828F8312035F7567
:10030200820312036812036C900001120AD91203CD
:1003120015D3227582001202C390000012035F758A
:10032200820012036875E2FF22AE82AF83758201FA
:10033200C007C0061202C3D006D0078E828F831276
:10034200035F75820112036812036C900001120AA6
:10035200D9AFE2C007120315D0078F8222AE82AF57
:10036200838EE48FE3228582E52275E64675E6B93F
:1003720022AE82AF83C3EF9420E433FDC374FF9EA9
:10038200742F9FE433FC4D600122758201C007C0C7
:10039200061202C3D006D0078E828F8312035F75C6
:1003A2008202120368850DE212036C900001120AA8
:1003B200D9020315AF82747F55E74480F5E774BF15
:1003C20055E7FEEF030354C04EF5E774DF55E744EB
:0403D20020F5E72209
:040000000200313297
:01000B0032C2
:0100130032BA
:01001B0032B2
:0100230032AA
:03002B00020409C3
:08008A00E4F538F53902002EFF
:03002E00020404C5
:1003D60075320075330175340175350090C35012BE
:1003E60006D7E5828583F0F53685F03790003275BD
:1003F600F04012073E75820112072F020AD6120339
:10040600D680FEC020C0E0C0F0C082C083C007C056
:1004160006C005C004C003C002C001C000C0D0753C
:10042600D00012072B0538E4B538020539740AB531
:100436003806E4B539028002800E7514047582010F
:1004460012024DE4F538F539D0D0D000D001D002F3
:10045600D003D004D005D006D007D083D082D0F008
:10046600D0E0D02032AE82AF83E4F50FF510E50E72
:1004760024FC4034E50E75F003A490048473020452
:10048600900204980204A00204A8750FFF75101FBD
:100496008016750FFF7510FF800E750FFF75100023
:1004A6008006750FFF7510008E148F1590000C12C4
:1004B6000B88AE82AF837B007A0075140BE4F515CA
:1004C600F516F5178E828F838BF0EA120BA5AA829A
:1004D600AB83AEF0FFA80FA9107C007D00C3EA989D
:1004E600EB99EE9CEF64808DF063F08095F040040C
:1004F600900000227401250FFCE43510FD8C008D60
:1005060001E4FCFDE8C39AFAE99BFBEC9EED9F8AA9
:10051600828B8322AF82BF00028005BF010F800756
:10052600E51424FF928C22E51424FF928E22AF82DA
:10053600AC11AD12AE138C828D838EF0120BF7F5D3
:10054600148F82C007C006C005C00412063AD00444
:10055600D005D006D00774012CF9E43DFA8E038944
:10056600828A838BF0120BF7F5148F82C007C006C0
:10057600C005C0041206A3D004D005D006D0077467
:10058600022CF9E43DFA8E0389828A838BF0120BE2
:10059600F7F5148F82C007C006C005C0041206BD59
:1005A600D004D005D006D00774032CF9E43DFA8EAA
:1005B6000389828A838BF0120BF7F5148F82C007AA
:1005C600C006C005C004120665D004D005D006D00A
:1005D6000774042CFCE43DFD8C828D838EF0120B97
:1005E600F7F514A3120BF7F5158F82020689AF8271
:1005F600BF00028005BF01248011AF8C7E00AC8A4B
:100606007D00EC4EF582ED4FF58322AF8D7E00AC7A
:100616008B7D00EC4EF582ED4FF583229000002293
:10062600AF82BF00028005BF01088003A28D22A20F
:100636008F22C322AF82BF00028005BF0120800F38
:1006460074FB5589FFE514251425E04FF5892274BE
:10065600BF5589FFE514030354C0FE4FF58922AF49
:1006660082BF00028005BF0119800974FC558945C7
:1006760014F5892274CF5589FFE514C454F0FE4F52
:10068600F58922AF82BF00028005BF010F80078572
:10069600158C85148A2285158D85148B22AF82BF11
:1006A60000028005BF010F8007E51424FF92A922EE
:1006B600E51424FF92AB22AF82BF00028005BF0182
:1006C6000F8007E51424FF92B922E51424FF92BB9C
:1006D6002285821485831590000C120B88AE82AF9A
:1006E600837D007C0075140BE4F515F516F5178E61
:1006F600828F838DF0EC120BA5AC82AD83AEF0FF3A
:10070600C3EC94FFED94FFEE9400EF648094804078
:100716000490000022C3E49CFCE49DFDE49EE49F5B
:100726008C828D832253C87F22AF8274FB55C8FE0C
:10073600EF2F25E04EF5C822AD82AE83AFF0120B47
:10074600F7F582C007C006C0051207F9D005D00626
:10075600D00774012DFAE43EFB8F048A828B838CCA
:10076600F0120BF7F582C007C006C005120816D0B6
:1007760005D006D00774022DFAE43EFB8F048A8268
:100786008B838CF0120BF7F582C007C006C00512EA
:100796000826D005D006D00774032DFAE43EFB8F59
:1007A600048A828B838CF0120BF7F582C007C00691
:1007B600C005120803D005D006D00774042DFDE449
:1007C6003EFE8D828E838FF0120BF7FDA3120BF780
:1007D600FE8D828E8302080DAFCD7E00ACCC7D00EF
:1007E600EC4206ED42078E828F8322E5C823540130
:1007F60024FF22AF8274CF55C84FF5C822AF82744A
:10080600CE55C84FF5C822AE82AF838FCD8ECC228F
:10081600AF8274DF55A8FEEFC42354E04EF5A8223C
:10082600AF8274DF55B8FEEFC42354E04EF5B8220C
:10083600AF8274F755C8FEEFC40354F84EF5C822CC
:10084600AF82747F5587FEEF0354804EF58722E50D
:100856008224FF929C22AD82AE83AFF074052DFAFE
:10086600E43EFB8F048A828B838CF0120BF7F582B1
:10087600C007C006C005120846D005D006D00774CA
:10088600062DFAE43EFB8F048A828B838CF0120BD2
:10089600F7F582C007C006C005120855D005D00678
:1008A600D00774042DFAE43EFB8F048A828B838C76
:1008B600F0120BF7F582C007C006C005120A98D0E1
:1008C60005D006D00774032DFAE43EFB8F048A8216
:1008D6008B838CF0120BF7F582C007C006C0051299
:1008E6000AA8D005D006D00774022DFAE43EFB8F85
:1008F600048A828B838CF0120BF7F582C007C00640
:10090600C005120AAFD005D006D00774072DFAE449
:100916003EFB8F048A828B838CF0120BF7FCBC01A2
:10092600028006BC0202804822754B00754C007599
:100936004D00754E028D828E838FF0120BF7FBA34E
:10094600120BF7FC7557018B828C831209B9E5826D
:100956008583F0F54F85F05075114B7512007513B0
:100966004075820112053475140175820102051A5B
:100976007551007552007553007554308D828E8303
:100986008FF0120BF7FDA3120BF7FE7557028D823F
:100996008E831209B9AE82AF838E558F568ECA8F5B
:1009A600CB90005175F04012073E75C90275820161
:1009B60002072FAE82AF837D007401B55702800A0D
:1009C6007402B557028061020A51E58730E72CC3ED
:1009D600E49E74E19F5004900000228E148F1575DA
:1009E600160075170090E100E4F5F0120BA5A98238
:1009F600AA83ABF0FCC3E499FD8050C374809E7457
:100A0600709F5004900000228E148F157516007585
:100A16001700907080E4F5F0120BA5A982AA83ABAB
:100A2600F0FCC3E499FD80238E148F1575160075AE
:100A3600170090460075F005E4120BA5AB82C3E4DF
:100A46009BFB3395E0FF8B828F83227F008D067C94
:100A560000ED4CF582EF4EF58322A298E433F58241
:100A660022A299E433F5822285829910990280FBAD
:100A760022AD82AE83AFF08D828E838FF0120BF79C
:100A8600FC600E8C9910990280FB0DBD00E90E806A
:100A9600E622AF82743F5598FEEF030354C04EF52D
:100AA6009822E58224FF92BC22E58224FF92AC22A2
:100AB600854A822290003A75F040227F00EF243A60
:100AC600F876000FEF24EF50F4754A0022C2AF22E9
:100AD600D2AF22AE82AF838E048F051EBEFF011FEA
:100AE600EC4D600A7D6E8D041DEC60EB80F82243B0
:100AF600E11022AF8274DF55E1FEEFC42354E04ECD
:100B0600F5E122AF8274F755E1FEEFC40354F84EC7
:100B1600F5E122AF8274F855E14FF5E122FB7A2028
:100B2600E4FCFDFEFFE5822582F582E58333F5834D
:100B3600E5F033F5F0EB33FB4017DAE98042E58266
:100B46002582F582E58333F583E5F033F5F0EB3363
:100B5600FBEC33FCED33FDEE33FEEF33FFEC951487
:100B6600ED9515EE9516EF95174013EC9514FCEDE3
:100B76009515FDEE9516FEEF9517FF438201DABE39
:020B8600EB2260
:06006000E478FFF6D8FD74
:10003E007900E94400601B7A00900C17780175A0D6
:10004E0000E493F2A308B8000205A0D9F4DAF27521
:02005E00A0FF01
:100B8800E5828514F0A4C582C0F08515F0A4D0F0E4
:0D0B980025F0C5838514F0A42583F5832284
:100066007800E84400600A790175A000E4F309D835
:10007600FC7800E84400600C7900900001E4F0A3ED
:04008600D8FCD9FACF
:100BA500FBC2D530E715D2D5E4C39582F582E4952D
:100BB50083F583E495F0F5F0E49BFBE51730E71743
:100BC500B2D5E4C39514F514E49515F515E4951619
:100BD500F516E49517F517EB120B2330D513FBE447
:100BE500C39582F582E49583F583E495F0F5F0E409
:020BF5009B2241
:0D003100758157120C13E582600302002E4A
:100BF70020F71430F6148883A88220F507E6A88327
:100C070075830022E280F7E49322E02275820022B6
:00000001FF
