:10006200AF82AC08AD09AE0A8C828D838EF0120B82
:100072006AF54B8F82C007C006C005C0041200D0CB
:10008200D004D005D006D0070CBC00010D8C828DA7
:10009200838EF0120B6AF54B8F82020101E582FF1B
:1000A20024FC4029EF2F9000AC738006800B801057
:1000B2008015E54B24FF92A822E54B24FF92AA2249
:1000C200E54B24FF92C222E54B24FF92C622E58231
:1000D200FF24FC4029EF2F9000DD738006800B8007
:1000E200108015E54B24FF928822E54B24FF928A6B
:1000F20022E54B24FF92C022E54B24FF92C422E565
:1001020082FF24FC4029EF2F90010E738006800BA2
:1001120080108015E54B24FF92B822E54B24FF9214
:10012200BA22E54B24FF92C322E54B24FF92C72259
:10013200AF82E50C7008850B4B8F820201B7850BED
:100142004B8F820201EDE582FF24FB4023EF2F90CB
:100152000155738008800A800C800E8010854B80C8
:1001620022854B9022854BA022854BB022854BE8FD
:1001720022AF827E00EF24FB4031EF2F9001827389
:100182008008800D80128017801CE54B5580FE8010
:100192001AE54B5590FE8013E54B55A0FE800CE509
:1001A2004B55B0FE8005E54B55E8FEEE7003F58237
:1001B2002275820122E582FF24FB402EEF2F90015F
:1001C200C4738008800C801080148018E54BF452B0
:1001D2008022E54BF4529022E54BF452A022E54BEB
:1001E200F452B022E54BF4FF52E822E582FF24FBF1
:1001F2004028EF2F9001FA738008800B800E801147
:100202008014E54B428022E54B429022E54B42A00E
:1002120022E54B42B022E54B42E822E582FF24FB75
:10022200406EEF2F90022A7380088019802A803B4B
:10023200804CE54BF4FFE5805207E580F4FEE54B88
:100242005E4FF58022E54BF4FFE5905207E590F40E
:10025200FEE54B5E4FF59022E54BF4FFE5A0520719
:10026200E5A0F4FEE54B5E4FF5A022E54BF4FFE579
:10027200B05207E5B0F4FEE54B5E4FF5B022E54B18
:10028200F4FFE5E85207E5E8F4FEE54B5E4FF5E8DA
:1002920022AF82747F55E7FEEF0354804EF5E722CA
:1002A200AE82AF83C3EF9420E433FDC374FF9E7428
:1002B2002F9FE433FC4D6002C322758201C007C048
:1002C20006120293D006D0078E828F8312032F75F7
:1002D200820312033812033C900001120A4C1202EC
:1002E200E5D32275820012029390000012032F754B
:1002F200820012033875E2FF22AE82AF837582015B
:10030200C007C006120293D006D0078E828F8312D6
:10031200032F75820112033812033C900001120A66
:100322004CAFE2C0071202E5D0078F8222AE82AF45
:10033200838EE48FE3228582E52275E64675E6B96F
:1003420022AE82AF83C3EF9420E433FDC374FF9ED9
:10035200742F9FE433FC4D600122758201C007C0F7
:1003620006120293D006D0078E828F8312032F7556
:100372008202120338850DE212033C900001120A38
:100382004C0202E5AF82747F55E74480F5E774BF03
:1003920055E7FEEF030354C04EF5E774DF55E7441B
:0403A20020F5E72239
:03000000020006F5
:03005F0002000399
:030003000203CA2B
:1003A600751F80752025752101752200752301753D
:1003B600240075250175260290001F75F04012076E
:1003C600CF020A491203A69001F4120A4C900B8A36
:0803D60075F0801209EA80EFC6
:0E0B8A0048656C6C6F2C776F726C640D0A00FE
:1003DE00AE82AF83E4F528F529E52724FC4034E509
:1003EE002775F003A49003F77302040302040B02B3
:1003FE00041302041B7528FF75291F80167528FF2C
:10040E007529FF800E7528FF75290080067528FF57
:10041E007529008E4B8F4C90000C120AFBAE82AFEA
:10042E00837B007A00754B0BE4F54CF54DF54E8E43
:10043E00828F838BF0EA120B18AA82AB83AEF0FF89
:10044E00A828A9297C007D00C3EA98EB99EE9CEFC1
:10045E0064808DF063F08095F0400490000022746B
:10046E00012528FCE43529FD8C008D01E4FCFDE816
:10047E00C39AFAE99BFBEC9EED9F8A828B8322AF97
:10048E0082BF00028005BF010F8007E54B24FF925B
:10049E008C22E54B24FF928E22AF82AC2AAD2BAE7E
:1004AE002C8C828D838EF0120B6AF54B8F82C007D7
:1004BE00C006C005C0041205ADD004D005D006D0CC
:1004CE000774012CF9E43DFA8E0389828A838BF03E
:1004DE00120B6AF54B8F82C007C006C005C004120E
:1004EE000616D004D005D006D00774022CF9E43DD0
:1004FE00FA8E0389828A838BF0120B6AF54B8F82F8
:10050E00C007C006C005C004120630D004D005D006
:10051E0006D00774032CF9E43DFA8E0389828A8390
:10052E008BF0120B6AF54B8F82C007C006C005C058
:10053E00041205D8D004D005D006D00774042CFCC4
:10054E00E43DFD8C828D838EF0120B6AF54BA31267
:10055E000B6AF54C8F820205FCAF82BF000280054C
:10056E00BF01248011AF8C7E00AC8A7D00EC4EF56D
:10057E0082ED4FF58322AF8D7E00AC8B7D00EC4E6D
:10058E00F582ED4FF5832290000022AF82BF00026C
:10059E008005BF01088003A28D22A28F22C322AF45
:1005AE0082BF00028005BF0120800F74FB5589FFBA
:1005BE00E54B254B25E04FF5892274BF5589FFE5A4
:1005CE004B030354C0FE4FF58922AF82BF00028059
:1005DE0005BF0119800974FC5589454BF5892274B4
:1005EE00CF5589FFE54BC454F0FE4FF58922AF82FB
:1005FE00BF00028005BF010F8007854C8C854B8A9A
:10060E0022854C8D854B8B22AF82BF00028005BFA9
:10061E00010F8007E54B24FF92A922E54B24FF92A0
:10062E00AB22AF82BF00028005BF010F8007E54BF2
:10063E0024FF92B922E54B24FF92BB2285824B8583
:10064E00834C90000C120AFBAE82AF837D007C00BF
:10065E00754B0BE4F54CF54DF54E8E828F838DF078
:10066E00EC120B18AC82AD83AEF0FFC3EC94FFED31
:10067E0094FFEE9400EF648094804004900000227A
:10068E00C3E49CFCE49DFDE49EE49F8C828D83225A
:10069E0053C87F22AF8274FB55C8FEEF2F25E04E64
:1006AE00F5C822AD82AE83AFF0120B6AF582C00799
:1006BE00C006C00512076CD005D006D00774012DF8
:1006CE00FAE43EFB8F048A828B838CF0120B6AF560
:1006DE0082C007C006C005120789D005D006D00714
:1006EE0074022DFAE43EFB8F048A828B838CF01207
:1006FE000B6AF582C007C006C005120799D005D057
:10070E0006D00774032DFAE43EFB8F048A828B8396
:10071E008CF0120B6AF582C007C006C00512077670
:10072E00D005D006D00774042DFDE43EFE8D828EDA
:10073E00838FF0120B6AFDA3120B6AFE8D828E83DD
:10074E00020780AFCD7E00ACCC7D00EC4206ED42C0
:10075E00078E828F8322E5C823540124FF22AF82A5
:10076E0074CF55C84FF5C822AF8274CE55C84FF519
:10077E00C822AE82AF838FCD8ECC22AF8274DF556E
:10078E00A8FEEFC42354E04EF5A822AF8274DF55C5
:10079E00B8FEEFC42354E04EF5B822AF8274F7557D
:1007AE00C8FEEFC40354F84EF5C822AF82747F55CD
:1007BE0087FEEF0354804EF58722E58224FF929C3C
:1007CE0022AD82AE83AFF074052DFAE43EFB8F04AA
:1007DE008A828B838CF0120B6AF582C007C006C02A
:1007EE00051207B9D005D006D00774062DFAE43EDF
:1007FE00FB8F048A828B838CF0120B6AF582C00702
:10080E00C006C0051207C8D005D006D00774042D47
:10081E00FAE43EFB8F048A828B838CF0120B6AF50E
:10082E0082C007C006C005120A0BD005D006D0073D
:10083E0074032DFAE43EFB8F048A828B838CF012B4
:10084E000B6AF582C007C006C005120A1BD005D080
:10085E0006D00774022DFAE43EFB8F048A828B8346
:10086E008CF0120B6AF582C007C006C005120A2270
:10087E00D005D006D00774072DFAE43EFB8F048A0C
:10088E00828B838CF0120B6AFCBC01028006BC02C8
:10089E0002804822753E00753F007540007541028A
:1008AE008D828E838FF0120B6AFBA3120B6AFC757E
:1008BE004A018B828C8312092CE5828583F0F542E6
:1008CE0085F043752A3E752B00752C4075820112FA
:1008DE0004A7754B0175820102048D7544007545A0
:1008EE00007546007547308D828E838FF0120B6A2D
:1008FE00FDA3120B6AFE754A028D828E8312092C9D
:10090E00AE82AF838E488F498ECA8FCB90004475CE
:10091E00F0401206B175C9027582010206A2AE82BE
:10092E00AF837D007401B54A02800A7402B54A0293
:10093E0080610209C4E58730E72CC3E49E74E19F11
:10094E005004900000228E4B8F4C754D00754E005A
:10095E0090E100E4F5F0120B18A982AA83ABF0FC2B
:10096E00C3E499FD8050C374809E74709F500490B0
:10097E000000228E4B8F4C754D00754E009070808E
:10098E00E4F5F0120B18A982AA83ABF0FCC3E4992C
:10099E00FD80238E4B8F4C754D00754E009046009A
:1009AE0075F005E4120B18AB82C3E49BFB3395E0A4
:1009BE00FF8B828F83227F008D067C00ED4CF582AB
:1009CE00EF4EF58322A298E433F58222A299E43306
:1009DE00F5822285829910990280FB22AD82AE8328
:1009EE00AFF08D828E838FF0120B6AFC600E8C99A5
:1009FE0010990280FB0DBD00E90E80E622AF8274D5
:100A0E003F5598FEEF030354C04EF59822E582241D
:100A1E00FF92BC22E58224FF92AC22853D82229079
:100A2E00002D75F040227F00EF242DF876000FEF99
:100A3E0024EF50F4753D0022C2AF22D2AF22AE8217
:100A4E00AF838E048F051EBEFF011FEC4D600A7D25
:100A5E006E8D041DEC60EB80F82243E11022AF8214
:100A6E0074DF55E1FEEFC42354E04EF5E122AF8270
:100A7E0074F755E1FEEFC40354F84EF5E122AF8250
:100A8E0074F855E14FF5E122FB7A20E4FCFDFEFF00
:100A9E00E5822582F582E58333F583E5F033F5F0C3
:100AAE00EB33FB4017DAE98042E5822582F582E5D9
:100ABE008333F583E5F033F5F0EB33FBEC33FCEDEC
:100ACE0033FDEE33FEEF33FFEC954BED954CEE958B
:100ADE004DEF954E4013EC954BFCED954CFDEE9580
:0D0AEE004DFEEF954EFF438201DABEEB2274
:06003500E478FFF6D8FD9F
:100013007900E94400601B7A00900B98780175A081
:1000230000E493F2A308B8000205A0D9F4DAF2754C
:02003300A0FF2C
:100AFB00E582854BF0A4C582C0F0854CF0A4D0F004
:0D0B0B0025F0C583854BF0A42583F58322DA
:10003B007800E84400600A790175A000E4F309D860
:10004B00FC7800E84400600C7900900001E4F0A318
:04005B00D8FCD9FAFA
:100B1800FBC2D530E715D2D5E4C39582F582E495BA
:100B280083F583E495F0F5F0E49BFBE54E30E71799
:100B3800B2D5E4C3954BF54BE4954CF54CE4954D93
:100B4800F54DE4954EF54EEB120A9630D513FBE4BD
:100B5800C39582F582E49583F583E495F0F5F0E496
:020B68009B22CE
:0D00060075814E120B86E582600302000337
:100B6A0020F71430F6148883A88220F507E6A883B4
:100B7A0075830022E280F7E49322E0227582002244
:00000001FF
