:10006200AF82AC08AD09AE0A8C828D838EF0120B82
:10007200A1F54B8F82C007C006C005C0041200D58F
:10008200D004D005D006D0070CBC00010D8C828DA7
:10009200838EF0120BA1F54B8F8202010BE582FFDA
:1000A20024FC402EEF2F2F9000AD730200B9020006
:1000B200C00200C70200CEE54B24FF92A822E54B06
:1000C20024FF92AA22E54B24FF92C222E54B24FF91
:1000D20092C622E582FF24FC402EEF2F2F9000E3F0
:1000E200730200EF0200F60200FD020104E54B2458
:1000F200FF928822E54B24FF928A22E54B24FF924D
:10010200C022E54B24FF92C422E582FF24FC402E4C
:10011200EF2F2F9001197302012502012C020133E6
:1001220002013AE54B24FF92B822E54B24FF92BA32
:1001320022E54B24FF92C322E54B24FF92C722AF54
:1001420082E50C7008850B4B8F820201D2850B4B26
:100152008F8202020EE582FF24FB4029EF2F2F90AF
:1001620001657302017402017802017C02018002BE
:100172000184854B8022854B9022854BA022854BA2
:10018200B022854BE822AF827E00EF24FB4037EF9E
:100192002F2F900198730201A70201AE0201B5024E
:1001A20001BC0201C3E54B5580FE801AE54B559018
:1001B200FE8013E54B55A0FE800CE54B55B0FE804A
:1001C20005E54B55E8FEEE7003F5822275820122A9
:1001D200E582FF24FB4034EF2F2F9001E0730201F0
:1001E200EF0201F50201FB020201020207E54BF4F4
:1001F200528022E54BF4529022E54BF452A022E5C4
:100202004BF452B022E54BF4FF52E822E582FF2480
:10021200FB402EEF2F2F90021C7302022B020230A2
:1002220002023502023A02023FE54B428022E54BCE
:10023200429022E54B42A022E54B42B022E54B42DE
:10024200E822E582FF24FB4074EF2F2F90025273C5
:1002520002026102027402028702029A0202ADE500
:100262004BF4FFE5805207E580F4FEE54B5E4FF567
:100272008022E54BF4FFE5905207E590F4FEE54B52
:100282005E4FF59022E54BF4FFE5A05207E5A0F49E
:10029200FEE54B5E4FF5A022E54BF4FFE5B05207B9
:1002A200E5B0F4FEE54B5E4FF5B022E54BF4FFE519
:1002B200E85207E5E8F4FEE54B5E4FF5E822AF822F
:1002C200747F55E7FEEF0354804EF5E722AE82AF0E
:1002D20083C3EF9420E433FDC374FF9E742F9FE425
:1002E20033FC4D6002C322758201C007C0061202B0
:1002F200C0D006D0078E828F8312035C75820312F0
:100302000365120369900001120A83120312D322B9
:100312007582001202C090000012035C7582001206
:10032200036575E2FF22AE82AF83758201C007C00A
:10033200061202C0D006D0078E828F8312035C752C
:100342008201120365120369900001120A83AFE26F
:10035200C007120312D0078F8222AE82AF838EE4CF
:100362008FE3228582E52275E64675E6B922AE82E2
:10037200AF83C3EF9420E433FDC374FF9E742F9FB9
:10038200E433FC4D600122758201C007C0061202EF
:10039200C0D006D0078E828F8312035C7582021250
:1003A2000365850DE2120369900001120A830203BC
:1003B20012AF82747F55E74480F5E774BF55E7FEBC
:1003C200EF030354C04EF5E774DF55E74420F5E729
:0103D2002208
:03000000020006F5
:03005F0002000399
:030003000203F401
:1003D300751F807520257521017522007523017510
:1003E300240075250190001F75F0401207E5020AED
:1003F300801203D39001F4120A83900BC175F0802D
:05040300120A2180EF48
:0E0BC10048656C6C6F2C776F726C640D0A00C7
:10040800AE82AF83E4F528F529E52724FC4034E5DE
:100418002775F003A49004217302042D0204350209
:10042800043D0204457528FF75291F80167528FFAD
:100438007529FF800E7528FF75290080067528FF2D
:100448007529008E4B8F4C90000C120B32AE82AF88
:10045800837B007A00754B0BE4F54CF54DF54E8E19
:10046800828F838BF0EA120B4FAA82AB83AEF0FF28
:10047800A828A9297C007D00C3EA98EB99EE9CEF97
:1004880064808DF063F08095F04004900000227441
:10049800012528FCE43529FD8C008D01E4FCFDE8EC
:1004A800C39AFAE99BFBEC9EED9F8A828B8322AF6D
:1004B80082BF00028005BF010F8007E54B24FF9231
:1004C8008C22E54B24FF928E22AF82AC2AAD2BAE54
:1004D8002C8C828D838EF0120BA1F54B8F82C00776
:1004E800C006C005C0041205D7D004D005D006D078
:1004F8000774012CF9E43DFA8E0389828A838BF014
:10050800120BA1F54B8F82C007C006C005C00412AC
:100518000640D004D005D006D00774022CF9E43D7B
:10052800FA8E0389828A838BF0120BA1F54B8F8296
:10053800C007C006C005C00412065AD004D005D0B2
:1005480006D00774032CF9E43DFA8E0389828A8366
:100558008BF0120BA1F54B8F82C007C006C005C0F7
:1005680004120602D004D005D006D00774042CFC6F
:10057800E43DFD8C828D838EF0120BA1F54BA31206
:100588000BA1F54C8F82020626AF82BF00028005C0
:10059800BF01248011AF8C7E00AC8A7D00EC4EF543
:1005A80082ED4FF58322AF8D7E00AC8B7D00EC4E43
:1005B800F582ED4FF5832290000022AF82BF000242
:1005C8008005BF01088003A28D22A28F22C322AF1B
:1005D80082BF00028005BF0120800F74FB5589FF90
:1005E800E54B254B25E04FF5892274BF5589FFE57A
:1005F8004B030354C0FE4FF58922AF82BF0002802F
:1006080005BF0119800974FC5589454BF589227489
:10061800CF5589FFE54BC454F0FE4FF58922AF82D0
:10062800BF00028005BF010F8007854C8C854B8A6F
:1006380022854C8D854B8B22AF82BF00028005BF7F
:10064800010F8007E54B24FF92A922E54B24FF9276
:10065800AB22AF82BF00028005BF010F8007E54BC8
:1006680024FF92B922E54B24FF92BB2285824B8559
:10067800834C90000C120B32AE82AF837D007C005D
:10068800754B0BE4F54CF54DF54E8E828F838DF04E
:10069800EC120B4FAC82AD83AEF0FFC3EC94FFEDD0
:1006A80094FFEE9400EF6480948040049000002250
:1006B800C3E49CFCE49DFDE49EE49F8C828D832230
:1006C800C2CF22E58224FF92CA22AD82AE83AFF068
:1006D800120BA1F582C007C006C005120788D00515
:1006E800D006D00774012DFAE43EFB8F048A828B72
:1006F800838CF0120BA1F582C007C006C005120753
:10070800A8D005D006D00774022DFAE43EFB8F046A
:100718008A828B838CF0120BA1F582C007C006C0B9
:10072800051207B8D005D006D00774032DFAE43EA9
:10073800FB8F048A828B838CF0120BA1F582C00791
:10074800C006C00512078FD005D006D00774042D47
:10075800FDE43EFE8D828E838FF0120BA1FDA31265
:100768000BA1FE8D828E83020799AFCD7E00ACCCA3
:100778007D00EC4206ED42078E828F8322A2CF22B3
:10078800E58224FF92C922AF8274CE55C84FF5C8BE
:1007980022AE82AF838F058DCD8DCB8ECC8ECA22B3
:1007A800AF8274DF55A8FEEFC42354E04EF5A822AB
:1007B800AF8274DF55B8FEEFC42354E04EF5B8227B
:1007C800E58224FF92CB22AF82747F5587FEEF0328
:1007D80054804EF58722E58224FF929C22AD82AE9A
:1007E80083AFF074052DFAE43EFB8F048A828B8375
:1007F8008CF0120BA1F582C007C006C0051207CF06
:10080800D005D006D00774062DFAE43EFB8F048A83
:10081800828B838CF0120BA1F582C007C006C0053D
:100828001207DED005D006D00774042DFAE43EFB8B
:100838008F048A828B838CF0120BA1F582C007C0CB
:1008480006C005120A42D005D006D00774032DFA57
:10085800E43EFB8F048A828B838CF0120BA1F58215
:10086800C007C006C005120A52D005D006D00774CA
:10087800022DFAE43EFB8F048A828B838CF0120BE4
:10088800A1F582C007C006C005120A59D005D006D6
:10089800D00774072DFAE43EFB8F048A828B838C81
:1008A800F0120BA1FCBC01028006BC0202804822A7
:1008B800753E00753F007540007541028D828E833C
:1008C8008FF0120BA1FBA3120BA1FC754A018B82BE
:1008D8008C83120940E5828583F0F54285F04375E3
:1008E8002A3E752B00752C407582011204D1754B78
:1008F800017582010204B77544007545007546000C
:100908007547308D828E838FF0120BA1FDA3120BD9
:10091800A1FE754A028D828E83120940E582858385
:10092800F0F54885F04990004475F0401206D275FC
:10093800C9027582010206CBAE82AF837D007401C5
:10094800B54A02800B7402B54A030209D80209FBB2
:10095800E58730E73D8E018F027B007C00C3E49978
:1009680074E19AE49B74808CF063F08095F05004F5
:1009780090000022894B8A4C8B4D8C4E90E100E40C
:10098800F5F0120B4FA982AA83ABF0FCC3E499FDE2
:1009980080618E018F027B007C00C3748099747023
:1009A8009AE49B74808CF063F08095F0500490007A
:1009B8000022894B8A4C8B4D8C4E907080E4F5F068
:1009C800120B4FA982AA83ABF0FCC3E499FD8023E4
:1009D8008E4B8F4C754D00754E0090460075F00596
:1009E800E4120B4FAB82C3E49BFB3395E0FF8B8291
:1009F8008F83227F008D067C00ED4CF582EF4EF54B
:100A08008322A298E433F58222A299E433F5822264
:100A180085829910990280FB22AD82AE83AFF08D5A
:100A2800828E838FF0120BA1FC600E8C99109902B4
:100A380080FB0DBD00E90E80E622AF82743F559819
:100A4800FEEF030354C04EF59822E58224FF92BCC2
:100A580022E58224FF92AC22853D822290002D75EA
:100A6800F040227F00EF242DF876000FEF24EF509E
:100A7800F4753D0022C2AF22D2AF22AE82AF838E80
:100A8800048F051EBEFF011FEC4D600A7D6E8D04AC
:100A98001DEC60EB80F82243E11022AF8274DF5531
:100AA800E1FEEFC42354E04EF5E122AF8274F7551E
:100AB800E1FEEFC40354F84EF5E122AF8274F85515
:100AC800E14FF5E122FB7A20E4FCFDFEFFE58225FB
:100AD80082F582E58333F583E5F033F5F0EB33FBFC
:100AE8004017DAE98042E5822582F582E58333F50D
:100AF80083E5F033F5F0EB33FBEC33FCED33FDEE3F
:100B080033FEEF33FFEC954BED954CEE954DEF959D
:100B18004E4013EC954BFCED954CFDEE954DFEEFDC
:0A0B2800954EFF438201DABEEB2276
:06003500E478FFF6D8FD9F
:100013007900E94400601B7A00900BCF780175A04A
:1000230000E493F2A308B8000205A0D9F4DAF2754C
:02003300A0FF2C
:100B3200E582854BF0A4C582C0F0854CF0A4D0F0CC
:0D0B420025F0C583854BF0A42583F58322A3
:10003B007800E84400600A790175A000E4F309D860
:10004B00FC7800E84400600C7900900001E4F0A318
:04005B00D8FCD9FAFA
:100B4F00FBC2D530E715D2D5E4C39582F582E49583
:100B5F0083F583E495F0F5F0E49BFBE54E30E71762
:100B6F00B2D5E4C3954BF54BE4954CF54CE4954D5C
:100B7F00F54DE4954EF54EEB120ACD30D513FBE44F
:100B8F00C39582F582E49583F583E495F0F5F0E45F
:020B9F009B2297
:0D00060075814E120BBDE582600302000300
:100BA10020F71430F6148883A88220F507E6A8837D
:100BB10075830022E280F7E49322E022758200220D
:00000001FF
