:10006200AF82AC08AD09AE0A8C828D838EF0120B82
:1000720086F5438F82C007C006C005C0041200D5B2
:10008200D004D005D006D0070CBC00010D8C828DA7
:10009200838EF0120B86F5438F8202010BE582FFFD
:1000A20024FC402EEF2F2F9000AD730200B9020006
:1000B200C00200C70200CEE54324FF92A822E54316
:1000C20024FF92AA22E54324FF92C222E54324FFA1
:1000D20092C622E582FF24FC402EEF2F2F9000E3F0
:1000E200730200EF0200F60200FD020104E5432460
:1000F200FF928822E54324FF928A22E54324FF925D
:10010200C022E54324FF92C422E582FF24FC402E54
:10011200EF2F2F9001197302012502012C020133E6
:1001220002013AE54324FF92B822E54324FF92BA42
:1001320022E54324FF92C322E54324FF92C722AF64
:1001420082E50C7008850B438F820201D2850B4336
:100152008F8202020EE582FF24FB4029EF2F2F90AF
:1001620001657302017402017802017C02018002BE
:10017200018485438022854390228543A0228543C2
:10018200B0228543E822AF827E00EF24FB4037EFA6
:100192002F2F900198730201A70201AE0201B5024E
:1001A20001BC0201C3E5435580FE801AE543559028
:1001B200FE8013E54355A0FE800CE54355B0FE805A
:1001C20005E54355E8FEEE7003F5822275820122B1
:1001D200E582FF24FB4034EF2F2F9001E0730201F0
:1001E200EF0201F50201FB020201020207E543F4FC
:1001F200528022E543F4529022E543F452A022E5D4
:1002020043F452B022E543F4FF52E822E582FF2490
:10021200FB402EEF2F2F90021C7302022B020230A2
:1002220002023502023A02023FE543428022E543DE
:10023200429022E54342A022E54342B022E54342F6
:10024200E822E582FF24FB4074EF2F2F90025273C5
:1002520002026102027402028702029A0202ADE500
:1002620043F4FFE5805207E580F4FEE5435E4FF577
:100272008022E543F4FFE5905207E590F4FEE54362
:100282005E4FF59022E543F4FFE5A05207E5A0F4A6
:10029200FEE5435E4FF5A022E543F4FFE5B05207C9
:1002A200E5B0F4FEE5435E4FF5B022E543F4FFE529
:1002B200E85207E5E8F4FEE5435E4FF5E822AF8237
:1002C200747F55E7FEEF0354804EF5E722AE82AF0E
:1002D20083C3EF9420E433FDC374FF9E742F9FE425
:1002E20033FC4D6002C322758201C007C0061202B0
:1002F200C0D006D0078E828F8312035C75820312F0
:100302000365120369900001120A68120312D322D4
:100312007582001202C090000012035C7582001206
:10032200036575E2FF22AE82AF83758201C007C00A
:10033200061202C0D006D0078E828F8312035C752C
:100342008201120365120369900001120A68AFE28A
:10035200C007120312D0078F8222AE82AF838EE4CF
:100362008FE3228582E52275E64675E6B922AE82E2
:10037200AF83C3EF9420E433FDC374FF9E742F9FB9
:10038200E433FC4D600122758201C007C0061202EF
:10039200C0D006D0078E828F8312035C7582021250
:1003A2000365850DE2120369900001120A680203D7
:1003B20012AF82747F55E74480F5E774BF55E7FEBC
:1003C200EF030354C04EF5E774DF55E74420F5E729
:0103D2002208
:03000000020006F5
:03005F0002000399
:030003000203D322
:1003D3007543207582041201D29001F4120A6875E4
:1003E300432075820412024480EFAE82AF83E4F5AA
:1003F30020F521E51F24FC4034E51F75F003A4908C
:1004030004067302041202041A02042202042A7567
:1004130020FF75211F80167520FF7521FF800E7543
:1004230020FF75210080067520FF7521008E438F04
:100433004490000C120B17AE82AF837B007A0075D9
:10044300430BE4F544F545F5468E828F838BF0EA42
:10045300120B34AA82AB83AEF0FFA820A9217C0043
:100463007D00C3EA98EB99EE9CEF64808DF063F016
:100473008095F040049000002274012520FCE435AF
:1004830021FD8C008D01E4FCFDE8C39AFAE99BFB96
:10049300EC9EED9F8A828B8322AF82BF0002800590
:1004A300BF010F8007E54324FF928C22E54324FF1D
:1004B300928E22AF82AC22AD23AE248C828D838EAA
:1004C300F0120B86F5438F82C007C006C005C00437
:1004D3001205BCD004D005D006D00774012CF9E472
:1004E3003DFA8E0389828A838BF0120B86F5438F44
:1004F30082C007C006C005C004120625D004D0057B
:10050300D006D00774022CF9E43DFA8E0389828A5F
:10051300838BF0120B86F5438F82C007C006C0059C
:10052300C00412063FD004D005D006D00774032CB4
:10053300F9E43DFA8E0389828A838BF0120B86F5E8
:10054300438F82C007C006C005C0041205E7D0046C
:10055300D005D006D00774042CFCE43DFD8C828DBD
:10056300838EF0120B86F543A3120B86F5448F821C
:1005730002060BAF82BF00028005BF01248011AFCA
:100583008C7E00AC8A7D00EC4EF582ED4FF5832224
:10059300AF8D7E00AC8B7D00EC4EF582ED4FF58385
:1005A3002290000022AF82BF00028005BF010880B5
:1005B30003A28D22A28F22C322AF82BF0002800535
:1005C300BF0120800F74FB5589FFE543254325E0D8
:1005D3004FF5892274BF5589FFE543030354C0FED9
:1005E3004FF58922AF82BF00028005BF0119800940
:1005F30074FC55894543F5892274CF5589FFE5433A
:10060300C454F0FE4FF58922AF82BF00028005BFBC
:10061300010F800785448C85438A2285448D854359
:100623008B22AF82BF00028005BF010F8007E54325
:1006330024FF92A922E54324FF92AB22AF82BF009D
:10064300028005BF010F8007E54324FF92B922E52D
:100653004324FF92BB2285824385834490000C127E
:100663000B17AE82AF837D007C0075430BE4F5442A
:10067300F545F5468E828F838DF0EC120B34AC82F8
:10068300AD83AEF0FFC3EC94FFED94FFEE9400EF67
:1006930064809480400490000022C3E49CFCE49DA9
:1006A300FDE49EE49F8C828D8322C2CF22E58224C7
:1006B300FF92CA22AD82AE83AFF0120B86F582C0E1
:1006C30007C006C00512076DD005D006D007740118
:1006D3002DFAE43EFB8F048A828B838CF0120B8607
:1006E300F582C007C006C00512078DD005D006D01D
:1006F3000774022DFAE43EFB8F048A828B838CF00D
:10070300120B86F582C007C006C00512079DD005EF
:10071300D006D00774032DFAE43EFB8F048A828B44
:10072300838CF0120B86F582C007C006C005120742
:1007330074D005D006D00774042DFDE43EFE8D82EF
:100743008E838FF0120B86FDA3120B86FE8D828E95
:100753008302077EAFCD7E00ACCC7D00EC4206ED7C
:1007630042078E828F8322A2CF22E58224FF92C981
:1007730022AF8274CE55C84FF5C822AE82AF838FA5
:10078300058DCD8DCB8ECC8ECA22AF8274DF55A85A
:10079300FEEFC42354E04EF5A822AF8274DF55B8B0
:1007A300FEEFC42354E04EF5B822E58224FF92CB3A
:1007B30022AF82747F5587FEEF0354804EF5872264
:1007C300E58224FF929C22AD82AE83AFF074052DA7
:1007D300FAE43EFB8F048A828B838CF0120B86F53E
:1007E30082C007C006C0051207B4D005D006D007E3
:1007F30074062DFAE43EFB8F048A828B838CF012FD
:100803000B86F582C007C006C0051207C3D005D00A
:1008130006D00774042DFAE43EFB8F048A828B838F
:100823008CF0120B86F582C007C006C005120A279A
:10083300D005D006D00774032DFAE43EFB8F048A5B
:10084300828B838CF0120B86F582C007C006C0052D
:10085300120A37D005D006D00774022DFAE43EFB06
:100863008F048A828B838CF0120B86F582C007C0BB
:1008730006C005120A3ED005D006D00774072DFA2C
:10088300E43EFB8F048A828B838CF0120B86FCBCC4
:1008930001028006BC0202804822753600753700CB
:1008A3007538007539028D828E838FF0120B86FBAB
:1008B300A3120B86FC7542018B828C83120925E5FA
:1008C300828583F0F53A85F03B75223675230075F2
:1008D30024407582011204B6754301758201020436
:1008E3009C753C00753D00753E00753F308D828ED2
:1008F300838FF0120B86FDA3120B86FE7542028DC9
:10090300828E83120925E5828583F0F54085F041C7
:1009130090003C75F0401206B775C902758201025A
:1009230006B0AE82AF837D007401B54202800B74C2
:1009330002B542030209BD0209E0E58730E73D8EB7
:10094300018F027B007C00C3E49974E19AE49B74F9
:10095300808CF063F08095F050049000002289436E
:100963008A448B458C4690E100E4F5F0120B34A9E0
:1009730082AA83ABF0FCC3E499FD80618E018F02F0
:100983007B007C00C374809974709AE49B74808CA0
:10099300F063F08095F050049000002289438A446C
:1009A3008B458C46907080E4F5F0120B34A982AA33
:1009B30083ABF0FCC3E499FD80238E438F447545DC
:1009C3000075460090460075F005E4120B34AB82C7
:1009D300C3E49BFB3395E0FF8B828F83227F008DE3
:1009E300067C00ED4CF582EF4EF58322A298E433AA
:1009F300F58222A299E433F5822285829910990225
:100A030080FB22AD82AE83AFF08D828E838FF01296
:100A13000B86FC600E8C9910990280FB0DBD00E9DA
:100A23000E80E622AF82743F5598FEEF030354C055
:100A33004EF59822E58224FF92BC22E58224FF92A0
:100A4300AC228535822290002575F040227F00EF8D
:100A53002425F876000FEF24EF50F475350022C2F9
:100A6300AF22D2AF22AE82AF838E048F051EBEFFAC
:100A7300011FEC4D600A7D6E8D041DEC60EB80F868
:100A83002243E11022AF8274DF55E1FEEFC4235409
:100A9300E04EF5E122AF8274F755E1FEEFC4035453
:100AA300F84EF5E122AF8274F855E14FF5E122FBF0
:100AB3007A20E4FCFDFEFFE5822582F582E583339F
:100AC300F583E5F033F5F0EB33FB4017DAE98042C9
:100AD300E5822582F582E58333F583E5F033F5F08E
:100AE300EB33FBEC33FCED33FDEE33FEEF33FFEC86
:100AF3009543ED9544EE9545EF95464013EC9543AC
:100B0300FCED9544FDEE9545FEEF9546FF438201CE
:040B1300DABEEB2239
:06003500E478FFF6D8FD9F
:100013007900E94400601B7A00900BA6780175A073
:1000230000E493F2A308B8000205A0D9F4DAF2754C
:02003300A0FF2C
:100B1700E5828543F0A4C582C0F08544F0A4D0F0F7
:0D0B270025F0C5838543F0A42583F58322C6
:10003B007800E84400600A790175A000E4F309D860
:10004B00FC7800E84400600C7900900001E4F0A318
:04005B00D8FCD9FAFA
:100B3400FBC2D530E715D2D5E4C39582F582E4959E
:100B440083F583E495F0F5F0E49BFBE54630E71785
:100B5400B2D5E4C39543F543E49544F544E495459F
:100B6400F545E49546F546EB120AB230D513FBE49D
:100B7400C39582F582E49583F583E495F0F5F0E47A
:020B84009B22B2
:0D000600758146120BA2E582600302000323
:100B860020F71430F6148883A88220F507E6A88398
:100B960075830022E280F7E49322E0227582002228
:00000001FF
